S00E00004E6F646520322E737265633E
S113000071C000008EC000008CC000008AC00000D7
S113001088C0000086C0000084C0000082C00000C8
S113002080C000007EC000007CC000007AC00000D8
S113003078C0000076C0000074C0000072C00000E8
S113004070C000006EC000006CC000006AC00000F8
S113005068C0000066C0000064C0000062C0000008
S113006060C000005EC000005CC000005AC0000018
S113007058C0000056C0000054C0000052C0000028
S113008050C000004EC000004CC000004AC0000038
S113009048C0000046C0000044C0000042C0000048
S11300A040C000003EC000003CC000003AC0000058
S11300B038C0000036C0000034C0000032C0000068
S11300C030C000002EC000002CC000002AC0000078
S11300D028C0000026C0000024C0000022C0000088
S11300E020C0000011241FBECFEFD1E2DEBFCDBF80
S11300F000E00CBF13E0A0E0B2E0EEE9FAE000E0BB
S11301000BBF02C007900D92AA31B107D9F723E0C3
S1130110AAE1B3E001C01D92A032B207E1F7B2D068
S1130120BCC487C04ED166E08BE25BD160E08FE057
S113013058C10895EF92FF920F931F93CF93DF93CB
S1130140CDB7DEB72B970FB6F894DEBF0FBECDBF89
S1130150E982FA820B831C832D833E834F83588765
S113016069877A878B87E980FA80B70176956795E6
S1130170769567957695679581E333D16E2D629573
S1130180660F607E82E32DD1602F6F7085E329D1E5
S1130190002371F07E0184E0E80EF11C0A5C16E392
S11301A0F70161917F01812F1CD11F5F1013F8CFDC
S11301B081E026D12B960FB6F894DEBF0FBECDBFDB
S11301C0DF91CF911F910F91FF90EF9008950F93BE
S11301D01F93CF93DF93EC0181E6F5D098E0899FDC
S11301E0800111241983088382E6EDD082958695D7
S11301F08770082B198308838EE092E08DD185E601
S1130200E2D08F708A83882361F010E086E6810F44
S1130210DAD0FE01E10FF11D83831F5F8A81181775
S1130220A8F360E08CE2DDD0DF91CF911F910F91B4
S113023008951F920F920FB60F9211240BB60F92CE
S11302402F933F934F935F936F937F938F939F93DA
S1130250AF93BF93EF93FF938BE192E05DD1FF9156
S1130260EF91BF91AF919F918F917F916F915F912A
S11302704F913F912F910F900BBE0F900FBE0F9097
S11302801F901895CF93DF93CDB7DEB766970FB65F
S1130290F894DEBF0FBECDBF17D144DFBBD01F9291
S11302A083E08F931F9282E08F931F9281E08F935C
S11302B088E292E09F938F931ED1FE0131968BE0EA
S11302C0DF011D928A95E9F780E8BCD0F8940FB657
S11302D0F894DEBF0FBECDBF0F2EF8E96F2EF2E00B
S11302E07F2EF02D0F2EFFEA8F2EF2E09F2EF02DA1
S11302F00F2EF1ECAF2EF2E0BF2EF02D0F2EF6ED07
S1130300CF2EF2E0DF2EF02D0F2EFCEE4F2EF2E07A
S11303105F2EF02D0F2EF2E02F2EF3E03F2EF02D66
S1130320EE24E394E9821A82F12C0B811C812D8145
S11303303E814F81588569857A858B85FBDE1F92C6
S113034091E09F937F926F92D6D0CE010C963FDFBF
S11303501F92A5E0AF939F928F92CDD02F85822FCD
S1130360992787FD90959F932F93BF92AF92C3D007
S11303702889822F992787FD90959F932F93DF9249
S1130380CF92B9D01F92B2E0BF935F924F92B3D095
S11303901F9223E02F933F922F92ADD08FEF93EDD6
S11303A0A0E381509040A040E1F700C000000FB6E8
S11303B0F894DEBF0FBECDBFB3CF2F9A08952F9808
S11303C008955DC00895CF93C82FF9DF83E063D00B
S11303D08C2F61D080E05FD0C82FEFDF8C2FCF91BE
S11303E00895CF93DF93D82FC62FE9DF82E053D04F
S11303F08D2F51D08C2F4FD0E0DFDF91CF91089516
S1130400CF93C82FDCDF8C2F8770806844D0D5DF72
S1130410CF910895259AE0E8F0E080818068808398
S1130420808182608083E1E8F0E08081886180835C
S11304308FE39CE99093870080938600808182609B
S11304408083089590E09C01220F331F220F331FF5
S1130450220F331F820F931F895F984F873027E045
S1130460920710F487E097E0883620E1920710F0B5
S113047087E690E19093890080938800089584B181
S1130480866084B9279A209A23988DB581608DBDA2
S113049080E58CBD08958EBD0DB407FC04C08EB5F7
S11304A00DB407FEFCCF0895E0ECF0E0908195FFD9
S11304B0FDCF8093C6000895E0ECF0E080818823AE
S11304C0ECF78091C6000895E5ECF0E0808180832C
S11304D0E4ECF0E080818766808388E18093C1004A
S11304E080E092E090931B0380931A0390931D0382
S11304F080931C030895CF93DF93CDB7DEB7FE013D
S1130500369661917191AF0180911C0390911D0306
S113051030D0DF91CF9108950F931F93CF93DF9342
S1130520E0911C03F0911D03238121FF1BC0EC010A
S113053000E010E0899160911C0370911D03DB01C0
S11305401896ED91FC911997882331F01995892B10
S113055089F30FEF1FEFEECF8AE01995892B11F481
S1130560C80102C08FEF9FEFDF91CF911F910F91D0
S113057008952F923F924F925F926F927F928F9243
S11305809F92AF92BF92CF92DF92EF92FF920F931E
S11305901F93CF93DF93CDB7DEB72C970FB6F894A4
S11305A0DEBF0FBECDBF7C016B018A01FC01178247
S11305B01682838181FFB0C1CE0101964C01F701FF
S11305C09381F60193FD859193FF81916F018823B7
S11305D009F49EC1853239F493FD859193FF81918D
S11305E06F01853221F4B70190E0C7D1E8CF512CD7
S11305F0312C20E02032A0F48B3269F030F48032C8
S113060059F0833269F420612CC08D3239F0803383
S113061039F4216026C02260246023C0286021C0F0
S113062027FD27C030ED380F3A3078F426FF06C096
S1130630FAE05F9E300D1124532E13C08AE0389ED9
S1130640300D1124332E20620CC08E3221F426FD8D
S11306505FC1206406C08C3611F4206802C088365D
S113066041F4F60193FD859193FF81916F0181110E
S1130670C1CF982F9F7D9554933028F40C5F1F4F62
S1130680FFE3F9830DC0833631F0833771F083358E
S113069009F057C021C0F801808189830E5F1F4F84
S11306A044244394512C540114C03801F2E06F0ED9
S11306B0711CF801A080B18026FF03C0652D70E095
S11306C002C06FEF7FEFC5012C874CD12C01830151
S11306D02C852F77222E16C03801F2E06F0E711C84
S11306E0F801A080B18026FF03C0652D70E002C030
S11306F06FEF7FEFC5012C872AD12C012C85206850
S1130700222E830123FC19C0832D90E0481659063C
S1130710A0F4B70180E290E030D13A94F5CFF5012E
S113072027FC859127FE81915F01B70190E025D1D7
S113073031103A94F1E04F1A51084114510479F7F9
S1130740DEC0843611F0893631F5F80127FF07C081
S113075060817181828193810C5F1F4F08C0608129
S11307607181882777FD8095982F0E5F1F4F2F7614
S1130770B22E97FF09C090958095709561957F4F33
S11307808F4F9F4F2068B22E2AE030E0A40127D17A
S1130790A82EA81843C0853729F42F7EB22E2AE04C
S11307A030E025C0F22FF97FBF2E8F36C1F018F448
S11307B0883579F0ADC0803719F0883721F0A8C0AA
S11307C02F2F2061B22EB4FE0DC08B2D8460B82E65
S11307D009C024FF0AC09F2F9660B92E06C028E0E6
S11307E030E005C020E130E002C020E132E0F80151
S11307F0B7FE07C060817181828193810C5F1F4FB6
S113080006C06081718180E090E00E5F1F4FA401FB
S1130810E6D0A82EA818FB2DFF77BF2EB6FE0BC07E
S11308202B2D2E7FA51450F4B4FE0AC0B2FC08C0D0
S11308302B2D2E7E05C07A2C2B2D03C07A2C01C0C3
S1130840752C24FF0DC0FE01EA0DF11D808180335B
S113085011F4297E09C022FF06C07394739404C066
S1130860822F867809F0739423FD12C020FF06C0FE
S11308705A2C731418F4530C5718732C731460F413
S1130880B70180E290E02C8778D073942C85F6CF62
S1130890731410F4371801C0312C24FF11C0B701B0
S11308A080E390E02C8769D02C8522FF16C021FFBD
S11308B003C088E590E002C088E790E0B7010CC06F
S11308C0822F867851F021FD02C080E201C08BE2C4
S11308D027FD8DE2B70190E050D0A51430F4B701A4
S11308E080E390E04AD05A94F8CFAA94F401EA0D38
S11308F0F11D8081B70190E040D0A110F6CF3320E4
S113090009F45DCEB70180E290E037D03A94F7CF96
S1130910F7018681978102C08FEF9FEF2C960FB667
S1130920F894DEBF0FBECDBFDF91CF911F910F9121
S1130930FF90EF90DF90CF90BF90AF909F908F90FB
S11309407F906F905F904F903F902F900895FC019F
S11309500590615070400110D8F7809590958E0FE6
S11309609F1F0895FC016150704001900110D8F759
S1130970809590958E0F9F1F08950F931F93CF938B
S1130980DF93182F092FEB018B8181FD03C08FEFBB
S11309909FEF20C082FF10C04E815F812C813D817A
S11309A0421753077CF4E881F9819F012F5F3F4F81
S11309B039832883108306C0E885F985812F19952A
S11309C0892B29F72E813F812F5F3F4F3F832E8351
S11309D0812F902FDF91CF911F910F910895FA01EC
S11309E0AA27283051F1203181F1E8946F936E7F6A
S11309F06E5F7F4F8F4F9F4FAF4FB1E03ED0B4E05B
S1130A003CD0670F781F891F9A1FA11D680F791F9B
S1130A108A1F911DA11D6A0F711D811D911DA11DAC
S1130A2020D009F468943F912AE0269F11243019BC
S1130A30305D3193DEF6CF010895462F4770405D57
S1130A404193B3E00FD0C9F7F6CF462F4F70405D06
S1130A504A3318F0495D31FD4052419302D0A9F761
S1130A60EACFB4E0A6959795879577956795BA955B
S1130A70C9F700976105710508959B01AC010A2E21
S1130A8006945795479537952795BA95C9F7620FF8
S1110A90731F841F951FA01D0895F894FFCFB7
S1130A9E000000030000000054025C0200004361E9
S1130AAE6E2066756E6374696F6E00496E6E206992
S1130ABE6E74657275707400496E697420646F6E1D
S1130ACE65657568696E6F6865756E73746968734C
S1130ADE6E6F7465756869206F736E657468756979
S1130AEE736E746F68657569746E7368206F6F7357
S1130AFE6E7465756869736E206F746568756920A8
S1130B0E736F74656875736E692074686F73656E40
S1130B1E75746869206F73656E75746869202564D1
S1130B2E2025642025640A0053656E74206D657358
S1130B3E73616765206964203D202564202000527E
S1130B4E65636569766564206964203D20256420AB
S1130B5E005265636569766564207820706F732032
S1130B6E3D202564200052656365697665642079AD
S1130B7E20706F73203D202564202000526563652C
S1130B8E69766564206C656E677468203D20256403
S1130B9E0A005265636569766564206C656E6774D8
S10D0BAE6831203D2025640A000090
S9030000FC
