S00E00004E6F646520322E737265633E
S1130000C2C00000DFC00000DDC00000EDC0000081
S1130010D9C00000D7C00000D5C00000D3C0000084
S1130020D1C00000CFC00000CDC00000CBC0000094
S1130030C9C00000C7C00000C5C00000C3C00000A4
S1130040C1C00000BFC00000BDC00000BBC00000B4
S113005039C20000B7C00000B5C00000B3C0000042
S1130060B1C00000AFC00000F2C30000ABC000008C
S1130070A9C00000A7C00000A5C00000A3C00000E4
S1130080A1C000009FC000009DC000009BC00000F4
S113009099C0000097C0000095C000002DC3000067
S11300A091C000008FC000008DC000008BC0000014
S11300B089C0000087C0000085C0000083C0000024
S11300C081C000007FC000007DC000007BC0000034
S11300D079C0000077C0000075C0000073C0000044
S11300E071C000009703E903E903E903E903E903A5
S11300F0E903E9039703E903E903E903E903E903EE
S1130100E903E9039903E903E903E903E903E903DB
S1130110E903E903E903E903E903E903E903E9037B
S1130120E903E9039903E903E903E903E903E903BB
S1130130E903E903E903E903E903E903E903E9035B
S1130140E903E903E503E903E903E903E903E9034F
S1130150E903E903C203E903E903E903E903E90362
S1130160E903E903E903E903E903E903E903E9032B
S1130170E903E903B603E903E903E903E903E9034E
S1130180E903E903D40311241FBECFEFD1E2DEBF9C
S1130190CDBF00E00CBF12E0A0E0B2E0E0E9FEE079
S11301A000E00BBF02C007900D92A03CB107D9F745
S11301B022E0A0ECB2E001C01D92AA3DB207E1F733
S11301C082D064C61DCFECE7F0E080818064808338
S11301D0EAE7F0E0808187608083808180628083A9
S11301E08081806C808308951F920F920FB60F92C6
S11301F011248F9381E08093C0028F910F900FBEE2
S11302000F901F901895C7D0F9D060E680E6D3D040
S113021063E08BE2D0D060E08FE0CDD0E9E6F0E09F
S1130220808180628083EA9A08950F931F93CF930D
S1130230DF93EC0181E6B1D098E0899F800111241D
S11302401983088382E6A9D0829586958770082B46
S11302501983088385E6A1D08F708A83882361F08F
S113026010E086E6810F99D0FE01E10FF11D838332
S11302701F5F8A811817A8F340E061E08CE2AAD0DE
S113028040E061E08CE2A6D01092C002DF91CF91F1
S11302901F910F91089597CF089502C20895CF93A7
S11302A0DF9300D0CDB7DEB790E5998383708A835E
S11302B06B8363E0CE010196FDD10F900F900F90F8
S11302C0DF91CF910895CF93DF93CDB7DEB72B970E
S11302D00FB6F894DEBF0FBECDBFE9D283E592E03E
S11302E014D391DF93D1D7DF8ED0789481E692E056
S11302F00CD380E8A3D10F2EFBE6EF2EF2E0FF2E05
S1130300F02D06E712E0CE0101968FDF8D81805833
S113031095D1DC802D2D332727FD30953F93DF9237
S1130320FF92EF92E1D281E084D08D2D67D1E091EC
S1130330C102F091C2026091C9027091CA02409157
S1130340C7025091C8022091C5023091C602809123
S1130350C3029091C402FF93EF937F936F935F93D3
S11303604F933F932F939F938F931F930F93BCD2DD
S11303702FEF89EF90E0215080409040E1F700C0DA
S113038000000FB6F894DEBF0FBECDBFBCCF2F9ACE
S113039008952F9808956FC10895CF93C82FF9DF5A
S11303A083E075D18C2F73D180E071D1C82FEFDF3A
S11303B08C2FCF910895CF93DF93D82FC62FE9DFE9
S11303C082E065D18D2F63D18C2F61D1E0DFDF9185
S11303D0CF9108951F93CF93DF93182FD62FC42F57
S11303E0D8DF85E054D1812F52D18D2F50D18C2F5D
S11303F04ED1CDDFDF91CF911F910895CADF80ECFC
S113040046D1C5CF0895E1E0F1E080818A67808319
S113041010920701E2E0F1E08081806280838081B4
S11304208D7A80833ADFEFE6F0E08081816080831B
S11304300895882331F0E2E0F1E0808180618083D7
S11304400895E2E0F1E080818F7E80830895682F33
S113045080E025CF0895882331F0E2E0F1E0808147
S1130460826080830895E2E0F1E080818D7F808363
S11304700895E2E0F1E080818F7D80838081877F31
S113048080832AE62A95F1F700C08091060190E066
S1130490982F88272081286020833AE63A95F1F73F
S11304A000C02091060130813F7B30833AE63A95C3
S11304B0F1F700C0308130643083308130623083A2
S11304C0822B08951F920F920FB60F9211240BB630
S11304D00F922F933F934F935F936F937F938F93D9
S11304E09F93AF93BF93EF93FF93C3DF2091C70212
S11304F03091C802820F931F9093C8028093C70261
S11305008091C9029091CA022091C7023091C80219
S1130510821B930B9093C4028093C3022091C50263
S11305203091C6028091C3029091C402820F931F3E
S11305309093C6028093C502409102025091030237
S11305406091C3027091C4028091000290910102F3
S1130550E091C502F091C602E89F9001E99F300D39
S1130560F89F300D1124649FC001659F900D749F06
S1130570900D1124820F931F9093C2028093C102A5
S11305808091C1029091C20299230CF44F969595E3
S1130590879595958795959587959595879595953F
S11305A087959093C2028093C1028091C102909179
S11305B0C20299234CF480E04EDF8091C1029091F5
S11305C0C202819544DF07C081E045DF8091C1020A
S11305D09091C2023CDFFF91EF91BF91AF919F9147
S11305E08F917F916F915F914F913F912F910F90D8
S11305F00BBE0F900FBE0F901F901895992787FD83
S113060090959093CA028093C9020895259AE0E8D0
S1130610F0E0808180688083808182608083E1E86B
S1130620F0E08081886180838FE39CE99093870068
S113063080938600808182608083089590E09C018D
S1130640220F331F220F331F220F331F820F931FDA
S1130650895F984F873027E0920710F487E097E08E
S1130660883620E1920710F087E690E190938900A4
S113067080938800089584B1866084B9279A209A6B
S113068023988DB581608DBD80E58CBD08958EBDA8
S11306900DB407FC04C08EB50DB407FEFCCF08955D
S11306A08CE08093B8008FEF8093BB0084E080934C
S11306B0BC000895ECEBF0E0208120FDFDCF6093B9
S11306C0CD02FC0120812093CE0220FD0CC06230BB
S11306D050F0DC011196EFECF2E081E09D919193F2
S11306E08F5F8613FBCF1092CC0288EF80930402B5
S11306F085EA8093BC0008951F920F920FB60F9263
S113070011240BB60F922F933F938F939F93AF9324
S1130710BF93EF93FF938091B90090E0FC01389769
S1130720E135F10508F055C0EE58FF4FD7C01092DF
S1130730CB02E091CB028091CD02E81770F481E006
S11307408E0F8093CB02F0E0E253FD4F80818093C3
S1130750BB0085E88093BC0043C08091CC028160DB
S11307608093CC0284E98093BC003AC0E091CB0230
S113077081E08E0F8093CB028091BB00F0E0E253C6
S1130780FD4F80832091CB0230E08091CD0290E038
S113079001972817390724F485EC8093BC0020C006
S11307A085E88093BC001CC08091BB00E091CB0223
S11307B0F0E0E253FD4F80838091CC02816080930E
S11307C0CC0284E98093BC000BC085EA8093BC0012
S11307D007C08091B9008093040284E08093BC0038
S11307E0FF91EF91BF91AF919F918F913F912F9185
S11307F00F900BBE0F900FBE0F901F901895409155
S1130800D3022091D20250E030E02F5F3F4F2F738C
S113081033274217530799F3E091D202F0E0EB5FDC
S1130820FD4F80838091D2028F5F8F738093D202B9
S1130830E1ECF0E080818062808380E00895E0EC68
S1130840F0E080818823ECF78091C60008951F9220
S11308500F920FB60F9211240BB60F928F939F93A2
S1130860EF93FF939091D2028091D302981779F07D
S1130870E091D302F0E0EB5FFD4F80818093C600EE
S11308808091D3028F5F8F738093D30205C0E1EC14
S1130890F0E080818F7D8083FF91EF919F918F9114
S11308A00F900BBE0F900FBE0F901F901895E5ECA4
S11308B0F0E080818083E4ECF0E0808187668083CF
S11308C088E18093C10085E492E09093D5028093FF
S11308D0D4029093D7028093D6020895EE0FFF1F9F
S11308E00590F491E02D1994CF93DF93CDB7DEB743
S11308F0FE01369661917191AF018091D60290917B
S1130900D70230D0DF91CF9108950F931F93CF93E7
S1130910DF93E091D602F091D702238121FF1BC01F
S1130920EC0100E010E089916091D6027091D70249
S1130930DB011896ED91FC911997882331F01995F4
S1130940892B89F30FEF1FEFEECF8AE01995892BDE
S113095011F4C80102C08FEF9FEFDF91CF911F9177
S11309600F9108952F923F924F925F926F927F92D0
S11309708F929F92AF92BF92CF92DF92EF92FF92AB
S11309800F931F93CF93DF93CDB7DEB72C970FB69A
S1130990F894DEBF0FBECDBF7C016B018A01FC0160
S11309A017821682838181FFB0C1CE0101964C016A
S11309B0F7019381F60193FD859193FF81916F0176
S11309C0882309F49EC1853239F493FD859193FF00
S11309D081916F01853221F4B70190E0C7D1E8CF4E
S11309E0512C312C20E02032A0F48B3269F030F409
S11309F0803259F0833269F420612CC08D3239F091
S1130A00803339F4216026C02260246023C028602A
S1130A1021C027FD27C030ED380F3A3078F426FF87
S1130A2006C0FAE05F9E300D1124532E13C08AE0F5
S1130A30389E300D1124332E20620CC08E3221F4E6
S1130A4026FD5FC1206406C08C3611F4206802C004
S1130A50883641F4F60193FD859193FF81916F01EE
S1130A608111C1CF982F9F7D9554933028F40C5F4A
S1130A701F4FFFE3F9830DC0833631F0833771F0E4
S1130A80833509F057C021C0F801808189830E5F46
S1130A901F4F44244394512C540114C03801F2E0F4
S1130AA06F0E711CF801A080B18026FF03C0652D74
S1130AB070E002C06FEF7FEFC5012C874CD12C0191
S1130AC083012C852F77222E16C03801F2E06F0E99
S1130AD0711CF801A080B18026FF03C0652D70E071
S1130AE002C06FEF7FEFC5012C872AD12C012C8522
S1130AF02068222E830123FC19C0832D90E0481620
S1130B005906A0F4B70180E290E030D13A94F5CFD1
S1130B10F50127FC859127FE81915F01B70190E0E3
S1130B2025D131103A94F1E04F1A5108411451047F
S1130B3079F7DEC0843611F0893631F5F80127FFE4
S1130B4007C060817181828193810C5F1F4F08C04F
S1130B5060817181882777FD8095982F0E5F1F4FE4
S1130B602F76B22E97FF09C0909580957095619568
S1130B707F4F8F4F9F4F2068B22E2AE030E0A401B0
S1130B8027D1A82EA81843C0853729F42F7EB22E6A
S1130B902AE030E025C0F22FF97FBF2E8F36C1F056
S1130BA018F4883579F0ADC0803719F0883721F012
S1130BB0A8C02F2F2061B22EB4FE0DC08B2D8460EF
S1130BC0B82E09C024FF0AC09F2F9660B92E06C014
S1130BD028E030E005C020E130E002C020E132E04E
S1130BE0F801B7FE07C060817181828193810C5F37
S1130BF01F4F06C06081718180E090E00E5F1F4F3F
S1130C00A401E6D0A82EA818FB2DFF77BF2EB6FEB0
S1130C100BC02B2D2E7FA51450F4B4FE0AC0B2FCD9
S1130C2008C02B2D2E7E05C07A2C2B2D03C07A2CC8
S1130C3001C0752C24FF0DC0FE01EA0DF11D808159
S1130C40803311F4297E09C022FF06C07394739483
S1130C5004C0822F867809F0739423FD12C020FF0C
S1130C6006C05A2C731418F4530C5718732C7314AD
S1130C7060F4B70180E290E02C8778D073942C85DF
S1130C80F6CF731410F4371801C0312C24FF11C0AF
S1130C90B70180E390E02C8769D02C8522FF16C031
S1130CA021FF03C088E590E002C088E790E0B70127
S1130CB00CC0822F867851F021FD02C080E201C071
S1130CC08BE227FD8DE2B70190E050D0A51430F4FB
S1130CD0B70180E390E04AD05A94F8CFAA94F40183
S1130CE0EA0DF11D8081B70190E040D0A110F6CF4C
S1130CF0332009F45DCEB70180E290E037D03A9416
S1130D00F7CFF7018681978102C08FEF9FEF2C9672
S1130D100FB6F894DEBF0FBECDBFDF91CF911F9108
S1130D200F91FF90EF90DF90CF90BF90AF909F9086
S1130D308F907F906F905F904F903F902F90089589
S1130D40FC010590615070400110D8F78095909592
S1130D508E0F9F1F0895FC01615070400190011097
S1130D60D8F7809590958E0F9F1F08950F931F932A
S1130D70CF93DF93182F092FEB018B8181FD03C0E3
S1130D808FEF9FEF20C082FF10C04E815F812C81C6
S1130D903D81421753077CF4E881F9819F012F5F5D
S1130DA03F4F39832883108306C0E885F985812F56
S1130DB01995892B29F72E813F812F5F3F4F3F8360
S1130DC02E83812F902FDF91CF911F910F91089542
S1130DD0FA01AA27283051F1203181F1E8946F9368
S1130DE06E7F6E5F7F4F8F4F9F4FAF4FB1E03ED00E
S1130DF0B4E03CD0670F781F891F9A1FA11D680FAC
S1130E00791F8A1F911DA11D6A0F711D811D911DDE
S1130E10A11D20D009F468943F912AE0269F112453
S1130E203019305D3193DEF6CF010895462F4770B7
S1130E30405D4193B3E00FD0C9F7F6CF462F4F7012
S1130E40405D4A3318F0495D31FD4052419302D070
S1130E50A9F7EACFB4E0A695979587957795679516
S1130E60BA95C9F700976105710508959B01AC0116
S1130E700A2E06945795479537952795BA95C9F73D
S1130E80620F731F841F951FA01D0895F894FFCF50
S1130E9005000A00F86100000000000000000000E6
S1130EA0000000000000000000000000000000003E
S1130EB0000000000000000000000000000000002E
S1130EC0000000000000000000000000000000001E
S1130ED000000000000000000300000000FF031FEA
S1130EE00400005374617274696E6720696E6974DA
S1130EF000496E697420646F6E650078706F7320AA
S1130F003D2025640A004572726F72203D202564DD
S1130F10207C204572726F7273756D203D202564AC
S1130F20207C204375727220706F73203D202564ED
S1130F30207C20536574706F696E74203D20256495
S1130F40207C204F7574707574203D2025640A0040
S9030000FC
