S00E00004E6F646520322E737265633E
S1130000C2C00000DFC00000DDC00000EDC0000081
S1130010D9C00000D7C00000D5C00000D3C0000084
S1130020D1C00000CFC00000CDC00000CBC0000094
S1130030C9C00000C7C00000C5C00000C3C00000A4
S1130040C1C00000BFC00000BDC00000BBC00000B4
S113005021C20000B7C00000B5C00000B3C000005A
S1130060B1C00000AFC0000047C40000ABC0000036
S1130070A9C00000A7C00000A5C00000A3C00000E4
S1130080A1C000009FC000009DC000009BC00000F4
S113009099C0000097C0000095C0000082C3000012
S11300A091C000008FC000008DC000008BC0000014
S11300B089C0000087C0000085C0000083C0000024
S11300C081C000007FC000007DC000007BC0000034
S11300D079C0000077C0000075C0000073C0000044
S11300E071C00000EC033E043E043E043E043E04A2
S11300F03E043E04EC033E043E043E043E043E043F
S11301003E043E04EE033E043E043E043E043E042C
S11301103E043E043E043E043E043E043E043E04CB
S11301203E043E04EE033E043E043E043E043E040C
S11301303E043E043E043E043E043E043E043E04AB
S11301403E043E043A043E043E043E043E043E049F
S11301503E043E0417043E043E043E043E043E04B2
S11301603E043E043E043E043E043E043E043E047B
S11301703E043E040B043E043E043E043E043E049E
S11301803E043E04290411241FBECFEFD1E2DEBF9A
S1130190CDBF00E00CBF12E0A0E0B2E0E0EFF9E078
S11301A000E00BBF02C007900D92A238B107D9F747
S11301B022E0A2E8B2E001C01D92AC39B207E1F737
S11301C0A1D014C41DCFECE7F0E08081806480836B
S11301D0EAE7F0E0808187608083808180628083A9
S11301E08081806C808308951F920F920FB60F92C6
S11301F011248F9381E0809382028F910F900FBE20
S11302000F901F901895809182020895ACD0DED093
S113021060E680E6B8D063E08BE2B5D060E08FE0C2
S1130220B2D0E9E6F0E0808180628083EA9A0895A2
S11302300F931F93CF93DF93EC0181E696D098E060
S1130240899F800111241983088382E68ED08295C8
S113025086958770082B1983088385E686D08F706E
S11302608A83882361F010E086E6810F7ED0FE0148
S1130270E10FF11D83831F5F8A811817A8F340E003
S113028061E08CE28FD040E061E08CE28BD0109290
S11302908202DF91CF911F910F91089594DFE1E0E5
S11302A0F1E0808181608083E2E0F1E0808181601F
S11302B080830895E2E0F1E080818E7F80832FEFD8
S11302C083EF91E0215080409040E1F700C00000AE
S11302D0808181608083089538C20895CF93DF932D
S11302E000D0CDB7DEB790E5998383708A836B83A2
S11302F063E0CE01019633D20F900F900F90DF91FF
S1130300CF910895CF93DF93CDB7DEB72B970FB678
S1130310F894DEBF0FBECDBF1FD383E592E039D37F
S113032075DFC9D1BBDF57D0789481E692E031D331
S113033080E8D9D168DF8823E9F38BE692E029D3FA
S1130340CE01019675DF8D81CED11E81105881E0DA
S113035058D08F818111AEDF812FA4D1EBCF2F9A9A
S113036008952F980895DCC10895CF93C82FF9DF1D
S113037083E0E2D18C2FE0D180E0DED1C82FEFDF23
S11303808C2FCF910895CF93DF93D82FC62FE9DF19
S113039082E0D2D18D2FD0D18C2FCED1E0DFDF916E
S11303A0CF9108951F93CF93DF93182FD62FC42F87
S11303B0D8DF85E0C1D1812FBFD18D2FBDD18C2F46
S11303C0BBD1CDDFDF91CF911F910895CADF80ECBF
S11303D0B3D1C5CF0895E1E0F1E080818A678083DD
S11303E010920701E2E0F1E08081806280838081E5
S11303F08D7A808371DFEFE6F0E080818160808315
S11304000895882331F0E2E0F1E080818061808307
S11304100895E2E0F1E080818F7E80830895682F63
S113042080E05CCF0895882331F0E2E0F1E0808140
S1130430826080830895E2E0F1E080818D7F808393
S11304400895E2E0F1E080818F7D80838081877F61
S113045080832AE62A95F1F700C08091060190E096
S1130460982F88272081286020833AE63A95F1F76F
S113047000C02091060130813F7B30833AE63A95F3
S1130480F1F700C0308130643083308130623083D2
S1130490822B08951F920F920FB60F9211240BB660
S11304A00F922F933F934F935F936F937F938F9309
S11304B09F93AF93BF93CF93DF93EF93FF93C09139
S11304C08902D0918A02BDDFC81BD90BD0938A025E
S11304D0C09389028091890290918A028036904F5C
S11304E03CF480E690EF90938A02809389020DC0D9
S11304F08091890290918A02813A9F4034F080EA87
S11305009FE090938A028093890280918B0290915C
S11305108C022091890230918A02821B930B909362
S11305208602809385022091850230918602409153
S1130530870250918802C90199230CF44F9695952E
S1130540879595958795959587959595879595958F
S11305508795840F951F90938802809387028091DA
S11305608702909188028036904F3CF480E690EFA9
S113057090938A02809389020DC0809187029091A2
S11305808802813A9F4034F080EA9FE09093880289
S11305908093870240910202509103026091850288
S11305A0709186028091000290910102E09187028D
S11305B0F0918802E89F9001E99F300DF89F300D7B
S11305C01124649FC001659F900D749F900D1124A8
S11305D0820F931F909384028093830280918302FD
S11305E09091840299230CF4CF96082E892F000C45
S11305F0881F990B000C881F991F90938402809385
S11306008302809183029091840299230CF580E007
S11306100ADF8091830290918402919581959109DA
S11306209093840280938302809183029091840248
S11306308F3F910539F034F08FEF90E0909384026E
S1130640809383028091830290918402E8DE15C036
S113065081E0E9DE80918302909184028F3F9105CD
S113066039F034F08FEF90E090938402809383020A
S11306708091830290918402D2DEFF91EF91DF9109
S1130680CF91BF91AF919F918F917F916F915F9126
S11306904F913F912F910F900BBE0F900FBE0F9073
S11306A01F90189520E28202C001112490938C02BD
S11306B080938B020895259AE0E8F0E080818068B9
S11306C08083808182608083E1E8F0E080818861BA
S11306D080838FE39CE990938700809386008081D8
S11306E082608083089590E09C01220F331F220FC3
S11306F0331F220F331F820F931F895F984F873058
S113070027E0920710F487E097E0883620E192070B
S113071010F087E690E19093890080938800089513
S113072084B1866084B9279A209A23988DB5816014
S11307308DBD80E58CBD08958EBD0DB407FC04C04D
S11307408EB50DB407FEFCCF08958CE08093B800FD
S11307508FEF8093BB0084E08093BC000895ECEBA2
S1130760F0E0208120FDFDCF60938F02FC01208109
S11307702093900220FD0CC0623050F0DC011196F1
S1130780E1E9F2E081E09D9191938F5F8613FBCFC5
S113079010928E0288EF8093040285EA8093BC0055
S11307A008951F920F920FB60F9211240BB60F9259
S11307B02F933F938F939F93AF93BF93EF93FF93A5
S11307C08091B90090E0FC013897E135F10508F01B
S11307D055C0EE58FF4FD7C010928D02E0918D02A4
S11307E080918F02E81770F481E08E0F80938D0260
S11307F0F0E0E057FD4F80818093BB0085E8809353
S1130800BC0043C080918E02816080938E0284E993
S11308108093BC003AC0E0918D0281E08E0F8093FA
S11308208D028091BB00F0E0E057FD4F8083209162
S11308308D0230E080918F0290E0019728173907EC
S113084024F485EC8093BC0020C085E88093BC0030
S11308501CC08091BB00E0918D02F0E0E057FD4F99
S1130860808380918E02816080938E0284E98093DC
S1130870BC000BC085EA8093BC0007C08091B9001E
S11308808093040284E08093BC00FF91EF91BF91B8
S1130890AF919F918F913F912F910F900BBE0F902D
S11308A00FBE0F901F9018954091950220919402CD
S11308B050E030E02F5F3F4F2F7333274217530729
S11308C099F3E0919402F0E0EB5FFD4F8083809117
S11308D094028F5F8F7380939402E1ECF0E0808147
S11308E08062808380E00895E0ECF0E080818823DA
S11308F0ECF78091C60008951F920F920FB60F92E5
S113090011240BB60F928F939F93EF93FF939091C3
S1130910940280919502981779F0E0919502F0E0A5
S1130920EB5FFD4F80818093C600809195028F5FBD
S11309308F738093950205C0E1ECF0E080818F7D98
S11309408083FF91EF919F918F910F900BBE0F9039
S11309500FBE0F901F901895E5ECF0E08081808326
S1130960E4ECF0E080818766808388E18093C100B5
S113097085E492E090939702809396029093990273
S1130980809398020895EE0FFF1F0590F491E02DD7
S113099019940F931F93CF93DF93E0919802F091F2
S11309A09902238121FF1BC0EC0100E010E0899132
S11309B06091980270919902DB011896ED91FC9177
S11309C01997882331F01995892B89F30FEF1FEFBD
S11309D0EECF8AE01995892B11F4C80102C08FEF7C
S11309E09FEFDF91CF911F910F910895F894FFCF5E
S11309F003000300F8610000000000000000000094
S1130A0000000000000000000000000000000000E2
S1130A1000000000000000000000000000000000D2
S1130A2000000000000000000000000000000000C2
S1130A3000000000000000000300000000540474E3
S1130A400400005374617274696E6720696E69747E
S1130A5000496E697420646F6E650043414E206DD9
S1130A60657373616765206176696C61626C65208A
S1050A70000080
S9030000FC
