S00E00004E6F646520322E737265633E
S113000071C000008EC000008CC000008BC00000D6
S113001088C0000086C0000084C0000082C00000C8
S113002080C000007EC000007CC000007AC00000D8
S113003078C0000076C0000074C0000072C00000E8
S113004070C000006EC000006CC000006AC00000F8
S113005068C0000066C0000064C0000062C0000008
S113006060C000005EC000005CC000005AC0000018
S113007058C0000056C0000054C0000052C0000028
S113008050C000004EC000004CC000004AC0000038
S113009048C0000046C0000044C0000042C0000048
S11300A040C000003EC000003CC000003AC0000058
S11300B038C0000036C0000034C0000032C0000068
S11300C030C000002EC000002CC000002AC0000078
S11300D028C0000026C0000024C0000022C0000088
S11300E020C0000011241FBECFEFD1E2DEBFCDBF80
S11300F000E00CBF12E0A0E0B2E0E6E3FAE000E0CA
S11301000BBF02C007900D92AE3AB107D9F722E0B7
S1130110AEEAB2E001C01D92A53BB207E1F7A1D05F
S113012088C46ECF1F920F920FB60F9211248F9333
S113013081E08093AE028F910F900FBE0F901F90BD
S113014018958091AE02089520D148D166E08BE2E3
S11301502CD160E08FE029D1E9E6F0E08081806273
S11301608083EA9A0895EF92FF920F931F93CF939F
S1130170DF93CDB7DEB72B970FB6F894DEBF0FBE73
S1130180CDBFE982FA820B831C832D833E834F8388
S1130190588769877A878B87E980FA80B7017695D3
S11301A06795769567957695679581E3FED06E2D74
S11301B06295660F607E82E3F8D0602F6F7085E3EE
S11301C0F4D0002371F07E0184E0E80EF11C0A5C97
S11301D016E3F70161917F01812FE7D01F5F1013B0
S11301E0F8CF81E0F1D02B960FB6F894DEBF0FBEA6
S11301F0CDBFDF91CF911F910F91FF90EF900895A4
S11302000F931F93CF93DF93EC0181E6C0D098E066
S1130210899F800111241983088382E6B8D08295CE
S113022086958770082B1983088385E6B0D08F7074
S11302308A83882361F010E086E6810FA8D0FE014E
S1130240E10FF11D83831F5F8A811817A8F360E013
S11302508CE2ABD01092AE02DF91CF911F910F913F
S11302600895CF93DF93CDB7DEB766970FB6F894B2
S1130270DEBF0FBECDBFF4D067DFB5D078948EE07B
S113028092E016D1FE013C968BE0DF011D928A9527
S1130290E9F70F2EF8E16F2EF2E07F2EF02D0F2EEE
S11302A0F1E38F2EF2E09F2EF02D0F2EF9E4AF2E06
S11302B0F2E0BF2EF02D0F2EF9E64F2EF2E05F2E66
S11302C0F02D0F2EFAE82F2EF2E03F2EF02DEC2C1D
S11302D0DA82C982FA800B811C812D813E814F8193
S11302E0588569857A858B853EDFDF92CF927F9230
S11302F06F92CDD0BFEFCB1ADB0A0F900F900F9007
S11303000F9021EDC21627E0D20610F0C12CD12C9B
S11303108DE23DD01F928F939F928F92B8D08DE142
S113032036D01F928F93BF92AF92B1D08CE12FD071
S11303301F928F935F924F92AAD003DF0FB6F89467
S1130340DEBF0FBECDBF882379F0CE010C9658DFF7
S11303508D858F938C858F933F922F9298D00F9099
S11303600F900F900F9003C08EE992E0A1D0BFEFE1
S113037023EC39E0B15020403040E1F700C00000E8
S1130380A6CF2F9A08952F98089545C00895CF9326
S1130390C82FF9DF83E04BD08C2F49D080E047D0C1
S11303A0C82FEFDF8C2FCF910895CF93DF93D82FF1
S11303B0C62FE9DF82E03BD08D2F39D08C2F37D088
S11303C0E0DFDF91CF910895CF93C82FDCDF8C2F2E
S11303D0877080682CD0D5DFCF910895D4DF80EC6E
S11303E026D0CFCF0895259AE0E8F0E08081806898
S11303F08083808182608083E1E8F0E0808188618D
S113040080838FE39CE990938700809386008081AA
S113041082608083089584B1866084B9279A209A83
S113042023988DB581608DBD80E58CBD08958EBD0A
S11304300DB407FC04C08EB50DB407FEFCCF0895BF
S1130440E0ECF0E0908195FFFDCF8093C600089525
S1130450E0ECF0E080818823ECF78091C6000895F9
S1130460E5ECF0E080818083E4ECF0E08081876655
S1130470808388E18093C10080E092E09093B00291
S11304808093AF029093B2028093B1020895CF9308
S1130490DF93CDB7DEB7FE01369661917191AF015E
S11304A08091B1029091B20230D0DF91CF91089542
S11304B00F931F93CF93DF93E091B102F091B202B7
S11304C0238121FF1BC0EC0100E010E089916091C1
S11304D0B1027091B202DB011896ED91FC9119976B
S11304E0882331F01995892B89F30FEF1FEFEECF95
S11304F08AE01995892B11F4C80102C08FEF9FEF90
S1130500DF91CF911F910F9108952F923F924F92B7
S11305105F926F927F928F929F92AF92BF92CF928F
S1130520DF92EF92FF920F931F93CF93DF93CDB798
S1130530DEB72C970FB6F894DEBF0FBECDBF7C019B
S11305406B018A01FC0117821682838181FFB0C18D
S1130550CE0101964C01F7019381F60193FD85913B
S113056093FF81916F01882309F49EC1853239F488
S113057093FD859193FF81916F01853221F4B70139
S113058090E0C7D1E8CF512C312C20E02032A0F4E8
S11305908B3269F030F4803259F0833269F420618F
S11305A02CC08D3239F0803339F4216026C02260AA
S11305B0246023C0286021C027FD27C030ED380FF8
S11305C03A3078F426FF06C0FAE05F9E300D11241D
S11305D0532E13C08AE0389E300D1124332E20622E
S11305E00CC08E3221F426FD5FC1206406C08C3617
S11305F011F4206802C0883641F4F60193FD859118
S113060093FF81916F018111C1CF982F9F7D9554E4
S1130610933028F40C5F1F4FFFE3F9830DC083363A
S113062031F0833771F0833509F057C021C0F801E8
S1130630808189830E5F1F4F44244394512C5401BD
S113064014C03801F2E06F0E711CF801A080B18073
S113065026FF03C0652D70E002C06FEF7FEFC50178
S11306602C874CD12C0183012C852F77222E16C088
S11306703801F2E06F0E711CF801A080B18026FFF2
S113068003C0652D70E002C06FEF7FEFC5012C87BA
S11306902AD12C012C852068222E830123FC19C029
S11306A0832D90E048165906A0F4B70180E290E04B
S11306B030D13A94F5CFF50127FC859127FE81913D
S11306C05F01B70190E025D131103A94F1E04F1A5F
S11306D051084114510479F7DEC0843611F089368B
S11306E031F5F80127FF07C0608171818281938110
S11306F00C5F1F4F08C060817181882777FD80954A
S1130700982F0E5F1F4F2F76B22E97FF09C090953A
S11307108095709561957F4F8F4F9F4F2068B22EC3
S11307202AE030E0A40127D1A82EA81843C08537B9
S113073029F42F7EB22E2AE030E025C0F22FF97F73
S1130740BF2E8F36C1F018F4883579F0ADC08037EC
S113075019F0883721F0A8C02F2F2061B22EB4FEE3
S11307600DC08B2D8460B82E09C024FF0AC09F2FB2
S11307709660B92E06C028E030E005C020E130E0E4
S113078002C020E132E0F801B7FE07C06081718148
S1130790828193810C5F1F4F06C06081718180E06C
S11307A090E00E5F1F4FA401E6D0A82EA818FB2DE1
S11307B0FF77BF2EB6FE0BC02B2D2E7FA51450F451
S11307C0B4FE0AC0B2FC08C02B2D2E7E05C07A2CC4
S11307D02B2D03C07A2C01C0752C24FF0DC0FE0103
S11307E0EA0DF11D8081803311F4297E09C022FFB6
S11307F006C07394739404C0822F867809F07394AE
S113080023FD12C020FF06C05A2C731418F4530C95
S11308105718732C731460F4B70180E290E02C87AE
S113082078D073942C85F6CF731410F4371801C064
S1130830312C24FF11C0B70180E390E02C8769D0EC
S11308402C8522FF16C021FF03C088E590E002C07A
S113085088E790E0B7010CC0822F867851F021FD23
S113086002C080E201C08BE227FD8DE2B70190E077
S113087050D0A51430F4B70180E390E04AD05A94E4
S1130880F8CFAA94F401EA0DF11D8081B70190E03C
S113089040D0A110F6CF332009F45DCEB70180E239
S11308A090E037D03A94F7CFF7018681978102C060
S11308B08FEF9FEF2C960FB6F894DEBF0FBECDBF1F
S11308C0DF91CF911F910F91FF90EF90DF90CF9028
S11308D0BF90AF909F908F907F906F905F904F905C
S11308E03F902F900895FC010590615070400110D5
S11308F0D8F7809590958E0F9F1F0895FC01615045
S1130900704001900110D8F7809590958E0F9F1F2D
S113091008950F931F93CF93DF93182F092FEB01A3
S11309208B8181FD03C08FEF9FEF20C082FF10C039
S11309304E815F812C813D81421753077CF4E8810D
S1130940F9819F012F5F3F4F39832883108306C0AD
S1130950E885F985812F1995892B29F72E813F8107
S11309602F5F3F4F3F832E83812F902FDF91CF91B5
S11309701F910F910895FA01AA27283051F12031CF
S113098081F1E8946F936E7F6E5F7F4F8F4F9F4F1F
S1130990AF4FB1E03ED0B4E03CD0670F781F891F61
S11309A09A1FA11D680F791F8A1F911DA11D6A0F2F
S11309B0711D811D911DA11D20D009F468943F91E2
S11309C02AE0269F11243019305D3193DEF6CF01E1
S11309D00895462F4770405D4193B3E00FD0C9F7A7
S11309E0F6CF462F4F70405D4A3318F0495D31FD14
S11309F04052419302D0A9F7EACFB4E0A695979567
S1130A00879577956795BA95C9F70097610571053C
S1130A1008959B01AC010A2E069457954795379586
S1130A202795BA95C9F7620F731F841F951FA01DE0
S1090A300895F894FFCFC5
S1130A360000000300000000200228020000496EA6
S1130A46697420646F6E650053656E74206D6573FA
S1130A5673616765206964203D20256420207C201D
S1130A66004572726F72206D657373616765203D10
S1130A762025303278207C200052656365697665CE
S1130A86206572726F7220636F756E746572203D95
S1130A962025303278207C20005472616E736D6993
S1130AA674206572726F7220636F756E746572203E
S1130AB63D2025303278207C2000526563656976B6
S1130AC66564206964203D202564200A20004E6F59
S1110AD6206E6577206D65737361676500009F
S9030000FC
