S00E00004E6F646520322E737265633E
S113000071C000008EC000008CC00000A1C00000C0
S113001088C0000086C0000084C0000082C00000C8
S113002080C000007EC000007CC000007AC00000D8
S113003078C0000076C0000074C0000072C00000E8
S113004070C000006EC000006CC000006AC00000F8
S113005068C0000066C0000064C0000062C0000008
S113006060C000005EC000005CC000005AC0000018
S113007058C0000056C0000054C0000052C0000028
S113008050C000004EC000004CC000004AC0000038
S113009048C0000046C0000044C0000042C0000048
S11300A040C000003EC000003CC000003AC0000058
S11300B038C0000036C0000034C0000032C0000068
S11300C030C000002EC000002CC000002AC0000078
S11300D028C0000026C0000024C0000022C0000088
S11300E020C0000011241FBECFEFD1E2DEBFCDBF80
S11300F000E00CBF13E0A0E0B2E0E0E7FAE000E0CB
S11301000BBF02C007900D92A230B107D9F723E0CC
S1130110A2E0B3E001C01D92A930B207E1F786D096
S1130120A5C46ECFECE7F0E0808180648083EAE7C9
S1130130F0E0808187608083808180628083808119
S1130140806C80830895809178009091790008955F
S11301501F920F920FB60F9211248F9381E0809318
S113016002038F910F900FBE0F901F90189503D12B
S113017035D160E680E60FD163E08BE20CD160E01C
S11301808FE009D1E9E6F0E0808180628083EA9A19
S113019008950F931F93CF93DF93EC0181E6EDD085
S11301A098E0899F800111241983088382E6E5D0B1
S11301B0829586958770082B1983088385E6DDD0A0
S11301C08F708A83882361F010E086E6810FD5D092
S11301D0FE01E10FF11D83831F5F8A811817A8F3C5
S11301E040E061E08CE2E6D040E061E08CE2E2D005
S11301F08CE2C3D01F928F938EE092E09F938F93F3
S113020063D1109202030F900F900F900F90DF9123
S1130210CF911F910F91089585CF089580E093DFCA
S113022021E0C29708F020E0822F0895CF93DF9356
S1130230CDB7DEB72B970FB6F894DEBF0FBECDBF98
S11302402CD195DFD0D0E8DF78948CE292E04DD1C8
S1130250FE0131968BE0DF011D928A95E9F780E873
S1130260DAD00F2EF6E38F2EF2E09F2EF02D0F2E14
S1130270FEE4AF2EF2E0BF2EF02D0F2EFEE6CF2EC1
S1130280F2E0DF2EF02D0F2EFEE0EF2EF2E0FF2E37
S1130290F02D0FE812E00F2EF4EA6F2EF2E07F2E1D
S11302A0F02D0F2EF2EC4F2EF2E05F2EF02D0F2EDC
S11302B0F6ED2F2EF2E03F2EF02D8DE25ED01F9250
S11302C08F939F928F9200D18DE157D01F928F937D
S11302D0BF92AF92F9D08CE150D01F928F93DF92EE
S11302E0CF92F2D08CE249D01F928F93FF92EF927B
S11302F0EBD08EE042D01F928F931F930F93E4D0E4
S11303008BE23BD01F928F937F926F92DDD0CE0110
S113031001963FDF8A818F9389818F935F924F92F9
S1130320D3D02C81822F992787FD90959F932F936B
S11303303F922F92C9D00FB6F894DEBF0FBECDBF47
S11303408C81805868D09FEFA1EEB4E09150A0401A
S1130350B040E1F700C0000061DF882321F08AEE9D
S113036092E0C3D0AACF85EF92E0BFD0A6CF2F9A58
S113037008952F9808956CC00895CF93C82FF9DF7E
S113038083E072D08C2F70D080E06ED0C82FEFDF66
S11303908C2FCF910895CF93DF93D82FC62FE9DF09
S11303A082E062D08D2F60D08C2F5ED0E0DFDF91B1
S11303B0CF9108951F93CF93DF93182FD62FC42F77
S11303C0D8DF85E051D0812F4FD08D2F4DD08C2F89
S11303D04BD0CDDFDF91CF911F910895CADF80EC20
S11303E043D0C5CF0895259AE0E8F0E08081806885
S11303F08083808182608083E1E8F0E0808188618D
S113040080838FE39CE990938700809386008081AA
S113041082608083089590E09C01220F331F220F95
S1130420331F220F331F820F931F895F984F87302A
S113043027E0920710F487E097E0883620E19207DE
S113044010F087E690E190938900809388000895E6
S113045084B1866084B9279A209A23988DB58160E7
S11304608DBD80E58CBD08958EBD0DB407FC04C020
S11304708EB50DB407FEFCCF0895E0ECF0E090815A
S113048095FFFDCF8093C6000895E0ECF0E08081F5
S11304908823ECF78091C6000895E5ECF0E08081B4
S11304A08083E4ECF0E080818766808388E1809338
S11304B0C10080E092E0909304038093030390933F
S11304C00603809305030895CF93DF93CDB7DEB77A
S11304D0FE01369661917191AF018091050390916F
S11304E0060330D0DF91CF9108950F931F93CF93DC
S11304F0DF93E0910503F0910603238121FF1BC0E4
S1130500EC0100E010E0899160910503709106030D
S1130510DB011896ED91FC911997882331F0199518
S1130520892B89F30FEF1FEFEECF8AE01995892B02
S113053011F4C80102C08FEF9FEFDF91CF911F919B
S11305400F9108952F923F924F925F926F927F92F4
S11305508F929F92AF92BF92CF92DF92EF92FF92CF
S11305600F931F93CF93DF93CDB7DEB72C970FB6BE
S1130570F894DEBF0FBECDBF7C016B018A01FC0184
S113058017821682838181FFB0C1CE0101964C018E
S1130590F7019381F60193FD859193FF81916F019A
S11305A0882309F49EC1853239F493FD859193FF24
S11305B081916F01853221F4B70190E0C7D1E8CF72
S11305C0512C312C20E02032A0F48B3269F030F42D
S11305D0803259F0833269F420612CC08D3239F0B5
S11305E0803339F4216026C02260246023C028604F
S11305F021C027FD27C030ED380F3A3078F426FFAC
S113060006C0FAE05F9E300D1124532E13C08AE019
S1130610389E300D1124332E20620CC08E3221F40A
S113062026FD5FC1206406C08C3611F4206802C028
S1130630883641F4F60193FD859193FF81916F0112
S11306408111C1CF982F9F7D9554933028F40C5F6E
S11306501F4FFFE3F9830DC0833631F0833771F008
S1130660833509F057C021C0F801808189830E5F6A
S11306701F4F44244394512C540114C03801F2E018
S11306806F0E711CF801A080B18026FF03C0652D98
S113069070E002C06FEF7FEFC5012C874CD12C01B5
S11306A083012C852F77222E16C03801F2E06F0EBD
S11306B0711CF801A080B18026FF03C0652D70E095
S11306C002C06FEF7FEFC5012C872AD12C012C8546
S11306D02068222E830123FC19C0832D90E0481644
S11306E05906A0F4B70180E290E030D13A94F5CFF6
S11306F0F50127FC859127FE81915F01B70190E008
S113070025D131103A94F1E04F1A510841145104A3
S113071079F7DEC0843611F0893631F5F80127FF08
S113072007C060817181828193810C5F1F4F08C073
S113073060817181882777FD8095982F0E5F1F4F08
S11307402F76B22E97FF09C090958095709561958C
S11307507F4F8F4F9F4F2068B22E2AE030E0A401D4
S113076027D1A82EA81843C0853729F42F7EB22E8E
S11307702AE030E025C0F22FF97FBF2E8F36C1F07A
S113078018F4883579F0ADC0803719F0883721F036
S1130790A8C02F2F2061B22EB4FE0DC08B2D846013
S11307A0B82E09C024FF0AC09F2F9660B92E06C038
S11307B028E030E005C020E130E002C020E132E072
S11307C0F801B7FE07C060817181828193810C5F5B
S11307D01F4F06C06081718180E090E00E5F1F4F63
S11307E0A401E6D0A82EA818FB2DFF77BF2EB6FED5
S11307F00BC02B2D2E7FA51450F4B4FE0AC0B2FCFE
S113080008C02B2D2E7E05C07A2C2B2D03C07A2CEC
S113081001C0752C24FF0DC0FE01EA0DF11D80817D
S1130820803311F4297E09C022FF06C073947394A7
S113083004C0822F867809F0739423FD12C020FF30
S113084006C05A2C731418F4530C5718732C7314D1
S113085060F4B70180E290E02C8778D073942C8503
S1130860F6CF731410F4371801C0312C24FF11C0D3
S1130870B70180E390E02C8769D02C8522FF16C055
S113088021FF03C088E590E002C088E790E0B7014B
S11308900CC0822F867851F021FD02C080E201C095
S11308A08BE227FD8DE2B70190E050D0A51430F41F
S11308B0B70180E390E04AD05A94F8CFAA94F401A7
S11308C0EA0DF11D8081B70190E040D0A110F6CF70
S11308D0332009F45DCEB70180E290E037D03A943A
S11308E0F7CFF7018681978102C08FEF9FEF2C9697
S11308F00FB6F894DEBF0FBECDBFDF91CF911F912D
S11309000F91FF90EF90DF90CF90BF90AF909F90AA
S11309108F907F906F905F904F903F902F900895AD
S1130920FC010590615070400110D8F780959095B6
S11309308E0F9F1F0895FC016150704001900110BB
S1130940D8F7809590958E0F9F1F08950F931F934E
S1130950CF93DF93182F092FEB018B8181FD03C007
S11309608FEF9FEF20C082FF10C04E815F812C81EA
S11309703D81421753077CF4E881F9819F012F5F81
S11309803F4F39832883108306C0E885F985812F7A
S11309901995892B29F72E813F812F5F3F4F3F8384
S11309A02E83812F902FDF91CF911F910F91089566
S11309B0FA01AA27283051F1203181F1E8946F938C
S11309C06E7F6E5F7F4F8F4F9F4FAF4FB1E03ED032
S11309D0B4E03CD0670F781F891F9A1FA11D680FD0
S11309E0791F8A1F911DA11D6A0F711D811D911D03
S11309F0A11D20D009F468943F912AE0269F112478
S1130A003019305D3193DEF6CF010895462F4770DB
S1130A10405D4193B3E00FD0C9F7F6CF462F4F7036
S1130A20405D4A3318F0495D31FD4052419302D094
S1130A30A9F7EACFB4E0A69597958795779567953A
S1130A40BA95C9F700976105710508959B01AC013A
S1130A500A2E06945795479537952795BA95C9F761
S1130A60620F731F841F951FA01D0895F894FFCF74
S1130A7000000003000000003D0245020000436145
S1130A806E20696E7465727275707420666C61672D
S1130A9073203D2025303278207C2000496E697413
S1130AA020646F6E65004572726F72206D6573739A
S1130AB0616765203D2025303278207C2000526516
S1130AC06365697665206572726F7220636F756EF7
S1130AD0746572203D2025303278207C20005472C9
S1130AE0616E736D6974206572726F7220636F75C5
S1130AF06E746572203D2025303278207C200043BE
S1130B00616E20737461747573203D2025303278D2
S1130B10207C200043414E20696E746572757074A8
S1130B2020656E61626C65203D2025303278207C22
S1130B3020005265636569766564206964203D2000
S1130B402564207C20004A6F79737469636B20707C
S1130B506F73203D202564200A0047616D65206F76
S1130B60766572200042616C6C20696E20706C6145
S1050B70790006
S9030000FC
