S00E00004E6F646520322E737265633E
S1130000C2C00000DFC00000DDC00000F2C000007C
S1130010D9C00000D7C00000D5C00000D3C0000084
S1130020D1C00000CFC00000CDC00000CBC0000094
S1130030C9C00000C7C00000C5C00000C3C00000A4
S1130040C1C00000BFC00000BDC00000BBC00000B4
S11300509AC10000B7C00000B5C00000B3C00000E2
S1130060B1C00000AFC00000EAC40000ABC0000093
S1130070A9C00000A7C00000A5C00000A3C00000E4
S1130080A1C000009FC000009DC000009BC00000F4
S113009099C0000097C0000095C0000025C400006E
S11300A091C000008FC000008DC000008BC0000014
S11300B089C0000087C0000085C0000083C0000024
S11300C081C000007FC000007DC000007BC0000034
S11300D079C0000077C0000075C0000073C0000044
S11300E071C000008F04E104E104E104E104E104CF
S11300F0E104E1048F04E104E104E104E104E10426
S1130100E104E1049104E104E104E104E104E10413
S1130110E104E104E104E104E104E104E104E104B3
S1130120E104E1049104E104E104E104E104E104F3
S1130130E104E104E104E104E104E104E104E10493
S1130140E104E104DD04E104E104E104E104E10487
S1130150E104E104BA04E104E104E104E104E1049A
S1130160E104E104E104E104E104E104E104E10463
S1130170E104E104AE04E104E104E104E104E10486
S1130180E104E104CC0411241FBECFEFD1E2DEBFB1
S1130190CDBF00E00CBF12E0A0E0B2E0E6E3FBE07C
S11301A000E00BBF02C007900D92AC36B107D9F73F
S11301B022E0ACE6B2E001C01D92A838B207E1F734
S11301C035D1B7C41DCFECE7F0E080818064808333
S11301D0EAE7F0E0808187608083808180628083A9
S11301E08081806C8083089580917800909179005B
S11301F008951F920F920FB60F9211248F9381E0EE
S113020080936C028F910F900FBE0F901F901895E2
S113021080916C02089565D1A1D160E680E671D128
S113022063E08BE26ED160E08FE06BD1E9E6F0E051
S1130230808180628083EA9A0895EF92FF920F93FF
S11302401F93CF93DF93CDB7DEB72B970FB6F894F8
S1130250DEBF0FBECDBFE982FA820B831C832D83E0
S11302603E834F83588769877A878B87E980FA8032
S1130270B70176956795769567957695679581E349
S113028040D16E2D6295660F607E82E33AD1602F75
S11302906F7085E336D1002371F07E0184E0E80EAF
S11302A0F11C0A5C16E3F70161917F01812F29D1CA
S11302B01F5F1013F8CF81E033D12B960FB6F8945B
S11302C0DEBF0FBECDBFDF91CF911F910F91FF9085
S11302D0EF9008950F931F93CF93DF93EC0181E682
S11302E002D198E0899F800111241983088382E652
S11302F0FAD0829586958770082B1983088385E642
S1130300F2D08F708A83882361F010E086E6810F33
S1130310EAD0FE01E10FF11D83831F5F8A81181764
S1130320A8F340E061E08CE205D140E061E08CE2BA
S113033001D110926C02DF91CF911F910F9108951A
S113034042DFE1E0F1E0808181608083E2E0F1E07E
S1130350808181608083089580E046DFC29770F4D5
S113036080916E02823020F081E080936D020895C6
S113037010926D028F5F80936E02089510926E0248
S113038010926D0208951F920F920FB60F921124CE
S11303900BB60F922F933F934F935F936F937F937B
S11303A08F939F93AF93BF93EF93FF933BD1D4DF8E
S11303B0FF91EF91BF91AF919F918F917F916F9139
S11303C05F914F913F912F910F900BBE0F900FBEF5
S11303D00F901F90189580916D020895E2E0F1E06E
S11303E080818E7F80832FEF83EF91E021508040C6
S11303F09040E1F700C0000080818160808308950F
S113040047C20895CF93DF9300D0CDB7DEB790E510
S1130410998383708A836B8363E0CE01019642D211
S11304200F900F900F90DF91CF910895CF93DF93AA
S1130430CDB7DEB766970FB6F894DEBF0FBECDBF5B
S11304402ED383E592E048D3E6DED8D179DF8BD092
S113045077DF789481E692E03FD380E8E7D110E03B
S11304600F2EFBE08F2EF02D6E018CE0C80ED11CF8
S11304700F2EFAEEAF2EF02D0F2EF3E09F2EF02D5F
S1130480B12C01C01B2DC4DE882379F0CE01019666
S113049021DF8D818095CAD10E81005881E079D009
S11304A08F8181119BDF802FA0D195DF882351F3A9
S11304B01111E9CFF601882D11928A95E9F7EA2CFA
S11304C0F92C0E851F85288939894A895B896C89AD
S11304D07D898E89B2DE11E0D6CF2F9A08952F98A8
S11304E00895C1C10895CF93C82FF9DF83E0C7D120
S11304F08C2FC5D180E0C3D1C82FEFDF8C2FCF91D3
S11305000895CF93DF93D82FC62FE9DF82E0B7D1C8
S11305108D2FB5D18C2FB3D1E0DFDF91CF9108952A
S1130520CF93C82FDCDF8C2F87708068A8D1D5DFEC
S1130530CF9108951F93CF93DF93182FD62FC42FF5
S1130540CEDF85E09CD1812F9AD18D2F98D18C2F2D
S113055096D1C3DFDF91CF911F910895C0DF80EC66
S11305608ED1BBCF0895E1E0F1E080818A6780837A
S113057010920701E2E0F1E0808180628083808153
S11305808D7A80833DDFEFE6F0E0808181608083B7
S11305900895882331F0E2E0F1E080818061808376
S11305A00895E2E0F1E080818F7E80830895682FD2
S11305B080E028CF0895882331F0E2E0F1E08081E3
S11305C0826080830895E2E0F1E080818D7F808302
S11305D00895E2E0F1E080818F7D80838081877FD0
S11305E080832AE62A95F1F700C08091060190E005
S11305F0982F88272081286020833AE63A95F1F7DE
S113060000C02091060130813F7B30833AE63A9561
S1130610F1F700C030813064308330813062308340
S1130620822B0895CF93DF93C0917502D091760207
S1130630D0DFC81BD90BD0937602C093750280918A
S11306407502909176028036904F3CF480E690EFEC
S113065090937602809375020DC0809175029091FB
S11306607602813A9F4034F080EA9FE090937602CC
S1130670809375028091770290917802209175029F
S113068030917602821B930B9093720280937102D5
S11306902091710230917202409173025091740260
S11306A0C90199230CF44F9695958795959587954F
S11306B0959587959595879595958795840F951F1D
S11306C090937402809373028091730290917402E8
S11306D08036904F3CF480E690EF909376028093BE
S11306E075020DC08091730290917402813A9F400B
S11306F034F080EA9FE090937402809373024091F7
S11307000202509103026091710270917202809111
S1130710000290910102E0917302F0917402E89F4B
S11307209001E99F300DF89F300D1124649FC001A2
S1130730659F900D749F900D1124820F931F9093C9
S1130740700280936F0280916F02909170029923DE
S11307500CF4CF96082E892F000C881F990B000CDF
S1130760881F991F9093700280936F0280916F028B
S11307709091700299230CF580E01DDF80916F0247
S11307809091700291958195910990937002809354
S11307906F0280916F02909170028F3F910539F042
S11307A034F08FEF90E09093700280936F02809109
S11307B06F0290917002FBDE15C081E0FCDE809137
S11307C06F02909170028F3F910539F034F08FEFF2
S11307D090E09093700280936F0280916F029091E9
S11307E07002E5DEDF91CF91089520E28202C0011C
S11307F0112490937802809377020895259AE0E873
S1130800F0E0808180688083808182608083E1E879
S1130810F0E08081886180838FE39CE99093870076
S113082080938600808182608083089590E09C019B
S1130830220F331F220F331F220F331F820F931FE8
S1130840895F984F873027E0920710F487E097E09C
S1130850883620E1920710F087E690E190938900B2
S113086080938800089584B1866084B9279A209A79
S113087023988DB581608DBD80E58CBD08958EBDB6
S11308800DB407FC04C08EB50DB407FEFCCF08956B
S11308908CE08093B8008FEF8093BB0084E080935A
S11308A0BC000895ECEBF0E0208120FDFDCF6093C7
S11308B07B02FC01208120937C0220FD0CC062306D
S11308C050F0DC011196EDE7F2E081E09D91919307
S11308D08F5F8613FBCF10927A0288EF8093040215
S11308E085EA8093BC0008951F920F920FB60F9271
S11308F011240BB60F922F933F938F939F93AF9333
S1130900BF93EF93FF938091B90090E0FC01389777
S1130910E135F10508F055C0EE58FF4FD7C01092ED
S11309207902E091790280917B02E81770F481E00A
S11309308E0F80937902F0E0E458FD4F808180931C
S1130940BB0085E88093BC0043C080917A0281603B
S113095080937A0284E98093BC003AC0E0917902E2
S113096081E08E0F809379028091BB00F0E0E4581F
S1130970FD4F80832091790230E080917B0290E0EA
S113098001972817390724F485EC8093BC0020C014
S113099085E88093BC001CC08091BB00E091790283
S11309A0F0E0E458FD4F808380917A028160809367
S11309B07A0284E98093BC000BC085EA8093BC0072
S11309C007C08091B9008093040284E08093BC0046
S11309D0FF91EF91BF91AF919F918F913F912F9193
S11309E00F900BBE0F900FBE0F901F901895409163
S11309F081022091800250E030E02F5F3F4F2F733F
S1130A0033274217530799F3E0918002F0E0EB5F3C
S1130A10FD4F8083809180028F5F8F73809380026B
S1130A20E1ECF0E080818062808380E00895E0EC76
S1130A30F0E080818823ECF78091C60008951F922E
S1130A400F920FB60F9211240BB60F928F939F93B0
S1130A50EF93FF939091800280918102981779F02F
S1130A60E0918102F0E0EB5FFD4F80818093C6004E
S1130A70809181028F5F8F738093810205C0E1ECC6
S1130A80F0E080818F7D8083FF91EF919F918F9122
S1130A900F900BBE0F900FBE0F901F901895E5ECB2
S1130AA0F0E080818083E4ECF0E0808187668083DD
S1130AB088E18093C10085E492E09093830280935F
S1130AC0820290938502809384020895EE0FFF1FA3
S1130AD00590F491E02D19940F931F93CF93DF9316
S1130AE0E0918402F0918502238121FF1BC0EC0177
S1130AF000E010E089916091840270918502DB012D
S1130B001896ED91FC911997882331F01995892B4A
S1130B1089F30FEF1FEFEECF8AE01995892B11F4BB
S1130B20C80102C08FEF9FEFDF91CF911F910F910A
S1090B300895F894FFCFC4
S1130B3603000300F861000000000000000000004C
S1130B46000000000000000000000000000000009B
S1130B56000000000000000000000000000000008B
S1130B66000000000000000000000000000000007B
S1130B7600000000000000000300000000F7041756
S1130B860500005374617274696E6720696E697436
S10F0B9600496E697420646F6E650000F5
S9030000FC
