S00E00004E6F646520322E737265633E
S113000071C000008EC000008CC00000A1C00000C0
S113001088C0000086C0000084C0000082C00000C8
S113002080C000007EC000007CC000007AC00000D8
S113003078C0000076C0000074C0000072C00000E8
S113004070C000006EC000006CC000006AC00000F8
S113005068C0000066C0000064C0000062C0000008
S113006060C000005EC00000D2C200005AC00000A0
S113007058C0000056C0000054C0000052C0000028
S113008050C000004EC000004CC000004AC0000038
S113009048C0000046C0000044C0000042C0000048
S11300A040C000003EC000003CC000003AC0000058
S11300B038C0000036C0000034C0000032C0000068
S11300C030C000002EC000002CC000002AC0000078
S11300D028C0000026C0000024C0000022C0000088
S11300E020C0000011241FBECFEFD1E2DEBFCDBF80
S11300F000E00CBF13E0A0E0B2E0E4E4FCE000E0C8
S11301000BBF02C007900D92A638B107D9F723E0C0
S1130110A6E8B3E001C01D92AF38B207E1F7D6D02C
S11301208FC56ECFECE7F0E0808180648083EAE7DE
S1130130F0E0808187608083808180628083808119
S1130140806C80830895809178009091790008955F
S11301501F920F920FB60F9211248F9381E0809318
S113016086038F910F900FBE0F901F90189580916A
S11301708603089598D1D4D160E680E6A4D163E0E3
S11301808BE2A1D160E08FE09ED1E9E6F0E08081CE
S113019080628083EA9A0895EF92FF920F931F93EF
S11301A0CF93DF93CDB7DEB72B970FB6F894DEBFAE
S11301B00FBECDBFE982FA820B831C832D833E835D
S11301C04F83588769877A878B87E980FA80B701DC
S11301D076956795769567957695679581E373D15E
S11301E06E2D6295660F607E82E36DD1602F6F7015
S11301F085E369D1002371F07E0184E0E80EF11CEF
S11302000A5C16E3F70161917F01812F5CD11F5FC6
S11302101013F8CF81E066D12B960FB6F894DEBFA9
S11302200FBECDBFDF91CF911F910F91FF90EF9043
S113023008950F931F93CF93DF93EC0181E635D19B
S113024098E0899F800111241983088382E62DD1C7
S1130250829586958770082B1983088385E625D1B6
S11302608F708A83882361F010E086E6810F1DD1A8
S1130270FE01E10FF11D83831F5F8A811817A8F324
S113028040E061E08CE238D140E061E08CE234D1BE
S11302908CE20BD11F928F938EE492E09F938F9305
S11302A0FDD1109286030F900F900F900F90DF9165
S11302B0CF911F910F91089535CF089580E043DFCA
S11302C021E0C29708F020E0822F0895CF93DF93B6
S11302D0CDB7DEB766970FB6F894DEBF0FBECDBFBD
S11302E0C6D148DF22D1E8DF78948CE692E0E7D1EA
S11302F0FE013C968BE0DF011D928A95E9F780E8C8
S11303002CD10F2EF6E74F2EF2E05F2EF02D0F2E9C
S1130310FFE86F2EF2E07F2EF02D0F2EF7EA8F2EDE
S1130320F2E09F2EF02D0F2EF7ECAF2EF2E0BF2E51
S1130330F02D0F2EF8EE2F2EF2E03F2EF02DEC2CA8
S1130340DA82C982FA800B811C812D813E814F8122
S1130350588569857A858B851FDFDF92CF925F92FE
S11303604F929CD1BFEFCB1ADB0A0F900F900F90E6
S11303700F9021EDC21627E0D20610F0C12CD12C2B
S11303808DE293D01F928F937F926F9287D18DE1EC
S11303908CD01F928F939F928F9280D18CE185D0C5
S11303A01F928F93BF92AF9279D1E1DE1F928F9308
S11303B03F922F9273D189B182FB882780F91F92D3
S11303C08F93AEEFB2E0BF93AF9368D18DE26DD05F
S11303D01F928F937F926F9261D18DE166D01F92AD
S11303E08F939F928F925AD18CE15FD01F928F93FB
S11303F0BF92AF9253D10FB6F894DEBF0FBECDBFFC
S11304008CE253D01F928F93AEE4B2E0BF93AF93CC
S113041045D18EE04AD01F928F93A2E1B3E0BF93FF
S1130420AF933CD18BE241D01F928F93A7E2B3E00C
S1130430BF93AF9333D1CE010C96FBDE8D858F93A2
S11304408C858F93A5E4B3E0BF93AF9327D12F8519
S1130450822F992787FD90959F932F93A9E5B3E069
S1130460BF93AF931BD18F85805877D03FEF81EE38
S113047094E0315080409040E1F700C000001EDF5E
S11304800FB6F894DEBF0FBECDBF882321F08DE6F2
S113049093E015D154CF88E793E011D150CF2F9A30
S11304A008952F98089576C00895CF93C82FF9DF43
S11304B083E07CD08C2F7AD080E078D0C82FEFDF17
S11304C08C2FCF910895CF93DF93D82FC62FE9DFD8
S11304D082E06CD08D2F6AD08C2F68D0E0DFDF9162
S11304E0CF910895CF93C82FDCDF8C2F877080685D
S11304F05DD0D5DFCF9108951F93CF93DF93182F4D
S1130500D62FC42FCEDF85E051D0812F4FD08D2F31
S11305104DD08C2F4BD0C3DFDF91CF911F91089525
S1130520C0DF80EC43D0BBCF0895259AE0E8F0E02B
S1130530808180688083808182608083E1E8F0E04C
S11305408081886180838FE39CE990938700809306
S11305508600808182608083089590E09C01220F50
S1130560331F220F331F220F331F820F931F895F04
S1130570984F873027E0920710F487E097E0883699
S113058020E1920710F087E690E190938900809330
S11305908800089584B1866084B9279A209A2398A4
S11305A08DB581608DBD80E58CBD08958EBD0DB483
S11305B007FC04C08EB50DB407FEFCCF089540912E
S11305C088032091870350E030E02F5F3F4F2F7363
S11305D033274217530799F3E0918703F0E0E05083
S11305E0FE4F8083809187038F5F8F73809387038F
S11305F0E1ECF0E080818062808380E00895E0ECAB
S1130600F0E080818823ECF78091C60008951F9262
S11306100F920FB60F9211240BB60F928F939F93E4
S1130620EF93FF939091870380918803981779F053
S1130630E0918803F0E0E050FE4F80818093C60093
S1130640809188038F5F8F738093880305C0E1ECEA
S1130650F0E080818F7D8083FF91EF919F918F9156
S11306600F900BBE0F900FBE0F901F901895E5ECE6
S1130670F0E080818083E4ECF0E080818766808311
S113068088E18093C10080E492E090938A03809390
S1130690890390938C0380938B030895CF93DF9306
S11306A0CDB7DEB7FE01369661917191AF018091AD
S11306B08B0390918C0330D0DF91CF9108950F93E9
S11306C01F93CF93DF93E0918B03F0918C032381ED
S11306D021FF1BC0EC0100E010E0899160918B03C5
S11306E070918C03DB011896ED91FC911997882386
S11306F031F01995892B89F30FEF1FEFEECF8AE0C4
S11307001995892B11F4C80102C08FEF9FEFDF9177
S1130710CF911F910F9108952F923F924F925F9224
S11307206F927F928F929F92AF92BF92CF92DF92FD
S1130730EF92FF920F931F93CF93DF93CDB7DEB762
S11307402C970FB6F894DEBF0FBECDBF7C016B01B2
S11307508A01FC0117821682838181FFB0C1CE0118
S113076001964C01F7019381F60193FD859193FF66
S113077081916F01882309F49EC1853239F493FD78
S1130780859193FF81916F01853221F4B70190E047
S1130790C7D1E8CF512C312C20E02032A0F48B3289
S11307A069F030F4803259F0833269F420612CC04E
S11307B08D3239F0803339F4216026C02260246000
S11307C023C0286021C027FD27C030ED380F3A3000
S11307D078F426FF06C0FAE05F9E300D1124532EF4
S11307E013C08AE0389E300D1124332E20620CC0D1
S11307F08E3221F426FD5FC1206406C08C3611F4CC
S1130800206802C0883641F4F60193FD859193FF78
S113081081916F018111C1CF982F9F7D95549330A1
S113082028F40C5F1F4FFFE3F9830DC0833631F0CA
S1130830833771F0833509F057C021C0F8018081F6
S113084089830E5F1F4F44244394512C540114C0D8
S11308503801F2E06F0E711CF801A080B18026FF10
S113086003C0652D70E002C06FEF7FEFC5012C87D8
S11308704CD12C0183012C852F77222E16C03801F0
S1130880F2E06F0E711CF801A080B18026FF03C056
S1130890652D70E002C06FEF7FEFC5012C872AD170
S11308A02C012C852068222E830123FC19C0832D62
S11308B090E048165906A0F4B70180E290E030D1E8
S11308C03A94F5CFF50127FC859127FE81915F01CC
S11308D0B70190E025D131103A94F1E04F1A510854
S11308E04114510479F7DEC0843611F0893631F5AC
S11308F0F80127FF07C060817181828193810C5FB9
S11309001F4F08C060817181882777FD8095982FDB
S11309100E5F1F4F2F76B22E97FF09C090958095DA
S1130920709561957F4F8F4F9F4F2068B22E2AE0BC
S113093030E0A40127D1A82EA81843C0853729F494
S11309402F7EB22E2AE030E025C0F22FF97FBF2E91
S11309508F36C1F018F4883579F0ADC0803719F0BE
S1130960883721F0A8C02F2F2061B22EB4FE0DC00D
S11309708B2D8460B82E09C024FF0AC09F2F966077
S1130980B92E06C028E030E005C020E130E002C006
S113099020E132E0F801B7FE07C0608171818281F5
S11309A093810C5F1F4F06C06081718180E090E0ED
S11309B00E5F1F4FA401E6D0A82EA818FB2DFF77C9
S11309C0BF2EB6FE0BC02B2D2E7FA51450F4B4FE03
S11309D00AC0B2FC08C02B2D2E7E05C07A2C2B2D0C
S11309E003C07A2C01C0752C24FF0DC0FE01EA0D52
S11309F0F11D8081803311F4297E09C022FF06C0D5
S1130A007394739404C0822F867809F0739423FD41
S1130A1012C020FF06C05A2C731418F4530C571834
S1130A20732C731460F4B70180E290E02C8778D0C3
S1130A3073942C85F6CF731410F4371801C0312C3D
S1130A4024FF11C0B70180E390E02C8769D02C8586
S1130A5022FF16C021FF03C088E590E002C088E7AA
S1130A6090E0B7010CC0822F867851F021FD02C0BE
S1130A7080E201C08BE227FD8DE2B70190E050D007
S1130A80A51430F4B70180E390E04AD05A94F8CF2B
S1130A90AA94F401EA0DF11D8081B70190E040D0E1
S1130AA0A110F6CF332009F45DCEB70180E290E0C7
S1130AB037D03A94F7CFF7018681978102C08FEF40
S1130AC09FEF2C960FB6F894DEBF0FBECDBFDF911B
S1130AD0CF911F910F91FF90EF90DF90CF90BF9037
S1130AE0AF909F908F907F906F905F904F903F90CA
S1130AF02F900895FC010590615070400110D8F7C3
S1130B00809590958E0F9F1F0895FC016150704051
S1130B1001900110D8F7809590958E0F9F1F08952E
S1130B200F931F93CF93DF93182F092FEB018B8122
S1130B3081FD03C08FEF9FEF20C082FF10C04E8164
S1130B405F812C813D81421753077CF4E881F98150
S1130B509F012F5F3F4F39832883108306C0E885A8
S1130B60F985812F1995892B29F72E813F812F5FD4
S1130B703F4F3F832E83812F902FDF91CF911F9181
S1130B800F910895FA01AA27283051F1203181F1FB
S1130B90E8946F936E7F6E5F7F4F8F4F9F4FAF4F81
S1130BA0B1E03ED0B4E03CD0670F781F891F9A1F94
S1130BB0A11D680F791F8A1F911DA11D6A0F711D48
S1130BC0811D911DA11D20D009F468943F912AE054
S1130BD0269F11243019305D3193DEF6CF0108953C
S1130BE0462F4770405D4193B3E00FD0C9F7F6CF6D
S1130BF0462F4F70405D4A3318F0495D31FD405235
S1130C00419302D0A9F7EACFB4E0A69597958795CA
S1130C1077956795BA95C9F70097610571050895A9
S1130C209B01AC010A2E0694579547953795279555
S1130C30BA95C9F7620F731F841F951FA01D0895ED
S1070C40F894FFCF52
S1130C44610000000000000000000000000000003B
S1130C54000000000000000000000000000000008C
S1130C64000000000000000000000000000000007C
S1130C74000000000000000000000000000000006C
S1130C840000000300000000DF02FF0200004361D3
S1130C946E20696E7465727275707420666C616717
S1130CA473203D2025303278207C2000496E6974FD
S1130CB420646F6E650053656E74206D6573736193
S1130CC46765206964203D20256420207C2000453C
S1130CD472726F72206D657373616765203D2025A0
S1130CE4303278207C20005265636569766520651E
S1130CF472726F7220636F756E746572203D202565
S1130D04303278207C20005472616E736D697420D3
S1130D146572726F7220636F756E746572203D2004
S1130D2425303278207C200043616E20617661692D
S1130D346C61626C65203D202564207C2000494E52
S1130D44543220737461747573203D202564207CAF
S1130D54200043616E20737461747573203D2025F3
S1130D64303278207C200043414E20696E746572D1
S1130D7475707420656E61626C65203D2025303287
S1130D8478207C2000526563656976656420696413
S1130D94203D202564207C20004A6F7973746963A4
S1130DA46B20706F73203D202564200A0047616D19
S1130DB465206F766572200042616C6C20696E2038
S1090DC4706C617900006F
S9030000FC
