S00E00004E6F646520312E737265633F
S11300000C9438000C9455000C945E000C9455002C
S11300100C9455000C9455000C9455000C94550008
S11300200C9455000C9455000C9455000C945500F8
S11300300C9455000C9455000C9455000C945500E8
S11300400C9455000C9455000C9455000C945500D8
S11300500C9455000C9455000C9455000C945500C8
S11300600C9455000C9455000C9455000C945500B8
S113007011241FBECFEFD4E0DEBFCDBF11E0A0E05E
S1130080B1E0E0ECF9E002C005900D92A439B107AB
S1130090D9F721E0A4E9B1E001C01D92AD39B2075E
S11300A0E1F70E94BA000C94DE040C940000089559
S11300B081B38C7F81BB3098389A08951F920F9238
S11300C00FB60F9211248F9381E0809394018F9146
S11300D00F900FBE0F901F90189580919401089572
S11300E00E943E010E94680166E08BE20E94540176
S11300F060E08FE00E94540185B7886085BF8BB7AC
S113010080688BBF08950F931F93CF93DF93EC0107
S113011081E60E94410198E0899F8001112419839E
S1130120088382E60E944101829586958770082B98
S11301301983088385E60E9441018F708A8388238E
S113014069F010E086E6810F0E944101FE01E10F93
S1130150F11D83831F5F8A811817A0F360E08CE28E
S11301600E94540110929401DF91CF911F910F913D
S113017008950895CF93DF93CDB7DEB72B970FB6CD
S1130180F894DEBF0FBECDBF0E94CD010E94570080
S11301900E9458000E948B010E94DC010E947000A2
S11301A00E94B90078948EE091E00E9434020F2EF0
S11301B0F8E1AF2EF1E0BF2EF02D0F2EF0E3CF2E9D
S11301C0F1E0DF2EF02D0F2EF0E5EF2EF1E0FF2E03
S11301D0F02D01E711E08DE20E9441011F928F93FF
S11301E0BF92AF920E9420028DE10E9441011F92B2
S11301F08F93DF92CF920E9420028CE10E944101F2
S11302001F928F93FF92EF920E942002CE010196DB
S11302100E9483008A818F9389818F931F930F9308
S11302200E9420020E946D000FB6F894DEBF0FBE3C
S1130230CDBF882389F0CE0101960E9483008A8174
S11302408F9389818F931F930F930E9420020F90A5
S11302500F900F900F9004C085E891E00E94340243
S11302603FEF8FEF92E0315080409040E1F700C0C3
S113027000C0B1CFC49A0895C49808950E94BF01E4
S11302800895CF93C82F0E943C0183E00E94C601C9
S11302908C2F0E94C60180E00E94C601C82F0E94D4
S11302A03A018C2FCF910895CF93DF93D82FC62F87
S11302B00E943C0182E00E94C6018D2F0E94C6016B
S11302C08C2F0E94C6010E943A01DF91CF910895BC
S11302D00E943C0180EC0E94C6010E943A010895EC
S11302E0877080939601806B8093001008950E941C
S11302F0700180E0E0E0F2E110828F5F8038E1F786
S11303000895CF93C0E08C2F0E947701CF5FC8304F
S1130310D1F7CF910895CF93DF93C0E0D0E18EEA77
S1130320888381EA88838AED888382E1888388ECE4
S1130330888388EA88838FE3888385ED888380E8CF
S1130340888381E8888380E5888389ED888381E2D6
S1130350888380E2888382E088838BED888380E3CE
S113036088838DEA8883188284EA888386EA88836E
S11303700E9481018FEA8883DF91CF91089587B32A
S1130380806B87BBBE9881E58DB908958FB9779945
S113039003C08FB1779BFDCF089585B7806885BF73
S11303A080B7806280BF0895159BFECF83B90895FE
S11303B0179BFECF83B108958CB78CBF80B18F613A
S11303C080B988E181B980E091E0909398018093AD
S11303D0970190939A018093990108950F931F9325
S11303E0CF93DF93182F092FEB018B8181FD03C07D
S11303F08FEF9FEF20C082FF10C04E815F812C8160
S11304003D81421753077CF4E881F9819F012F5FF6
S11304103F4F39832883108306C0E885F985812FEF
S11304200995892B29F72E813F812F5F3F4F3F8309
S11304302E83812F902FDF91CF911F910F910895DB
S1130440A0E0B0E0E6E2F2E00C94B704FE013596D9
S113045061917191AF018091990190919A010E94EB
S11304606102E2E00C94D3040F931F93CF93DF93C4
S1130470E0919901F0919A01238121FF1BC0EC01C5
S113048000E010E089916091990170919A01DB017B
S11304901896ED91FC911997882331F00995892BD1
S11304A089F30FEF1FEFEECF8AE00995892B11F442
S11304B0C80102C08FEF9FEFDF91CF911F910F9181
S11304C00895ACE0B0E0E7E6F2E00C94A7047C0108
S11304D06B018A01FC0117821682838181FFBDC1F1
S11304E0CE0101964C01F7019381F60193FD8591AC
S11304F093FF81916F01882309F4ABC1853239F4EC
S113050093FD859193FF81916F01853229F4B701A1
S113051090E00E94EE01E7CF512C312C20E02032F4
S1130520A0F48B3269F030F4803259F0833269F4EC
S113053020612CC08D3239F0803339F4216026C01B
S11305402260246023C0286021C027FD27C030ED2D
S1130550380F3A3078F426FF06C0FAE05F9E300D7B
S11305601124532E13C08AE0389E300D1124332EEB
S113057020620CC08E3221F426FD6BC1206406C0BB
S11305808C3611F4206802C0883641F4F60193FDDC
S1130590859193FF81916F018111C1CF982F9F7D28
S11305A09554933028F40C5F1F4FFFE3F9830DC07B
S11305B0833631F0833771F0833509F05BC022C094
S11305C0F801808189830E5F1F4F44244394512C8A
S11305D0540115C03801F2E06F0E711CF801A080BF
S11305E0B18026FF03C0652D70E002C06FEF7FEF7E
S11305F0C5012C870E943E042C0183012C852F7792
S1130600222E17C03801F2E06F0E711CF801A08091
S1130610B18026FF03C0652D70E002C06FEF7FEF4D
S1130620C5012C870E9433042C012C852068222EBE
S1130630830123FC1BC0832D90E048165906B0F4B7
S1130640B70180E290E00E94EE013A94F4CFF50104
S113065027FC859127FE81915F01B70190E00E94FC
S1130660EE0131103A94F1E04F1A5108411451044B
S113067071F7E5C0843611F0893639F5F80127FFA2
S113068007C060817181828193810C5F1F4F08C014
S113069060817181882777FD8095982F0E5F1F4FA9
S11306A02F76B22E97FF09C090958095709561952D
S11306B07F4F8F4F9F4F2068B22E2AE030E0A40175
S11306C00E944904A82EA81844C0853729F42F7E17
S11306D0B22E2AE030E025C0F22FF97FBF2E8F36EC
S11306E0C1F018F4883579F0B4C0803719F0883730
S11306F021F0AFC02F2F2061B22EB4FE0DC08B2D80
S11307008460B82E09C024FF0AC09F2F9660B92EBA
S113071006C028E030E005C020E130E002C020E15E
S113072032E0F801B7FE07C0608171818281938154
S11307300C5F1F4F06C06081718180E090E00E5F06
S11307401F4FA4010E944904A82EA818FB2DFF776F
S1130750BF2EB6FE0BC02B2D2E7FA51450F4B4FE75
S11307600AC0B2FC08C02B2D2E7E05C07A2C2B2D7E
S113077003C07A2C01C0752C24FF0DC0FE01EA0DC4
S1130780F11D8081803311F4297E09C022FF06C047
S11307907394739404C0822F867809F0739423FDB4
S11307A013C020FF06C05A2C731418F4530C5718A6
S11307B0732C731468F4B70180E290E02C870E94D4
S11307C0EE0173942C85F5CF731410F4371801C01F
S11307D0312C24FF12C0B70180E390E02C870E94E3
S11307E0EE012C8522FF17C021FF03C088E590E0AD
S11307F002C088E790E0B7010CC0822F867859F0D8
S113080021FD02C080E201C08BE227FD8DE2B70129
S113081090E00E94EE01A51438F4B70180E390E063
S11308200E94EE015A94F7CFAA94F401EA0DF11D47
S11308308081B70190E00E94EE01A110F5CF332032
S113084009F451CEB70180E290E00E94EE013A949F
S1130850F6CFF7018681978102C08FEF9FEF2C9628
S1130860E2E10C94C304FC01059061507040011056
S1130870D8F7809590958E0F9F1F0895FC016150C5
S1130880704001900110D8F7809590958E0F9F1FAE
S11308900895FA01AA27283051F1203181F1E89412
S11308A06F936E7F6E5F7F4F8F4F9F4FAF4FB1E05F
S11308B03ED0B4E03CD0670F781F891F9A1FA11D5A
S11308C0680F791F8A1F911DA11D6A0F711D811D5B
S11308D0911DA11D20D009F468943F912AE0269F20
S11308E011243019305D3193DEF6CF010895462F7F
S11308F04770405D4193B3E00FD0C9F7F6CF462F60
S11309004F70405D4A3318F0495D31FD40524193C8
S113091002D0A9F7EACFB4E0A69597958795779585
S11309206795BA95C9F700976105710508959B010C
S1130930AC010A2E06945795479537952795BA9595
S1130940C9F7620F731F841F951FA01D08952F926E
S11309503F924F925F926F927F928F929F92AF924B
S1130960BF92CF92DF92EF92FF920F931F93CF9398
S1130970DF93CDB7DEB7CA1BDB0B0FB6F894DEBF2F
S11309800FBECDBF09942A88398848885F846E8455
S11309907D848C849B84AA84B984C884DF80EE809F
S11309A0FD800C811B81AA81B981CE0FD11D0FB6A8
S11309B0F894DEBF0FBECDBFED010895F894FFCFCC
S11309C00000000300000000D401D8010000496EBB
S11309D0697420646F6E65004572726F72206D6574
S11309E07373616765203D2025303278207C2000B8
S11309F052656365697665206572726F7220636FF4
S1130A00756E746572203D2025303278207C20007C
S1130A105472616E736D6974206572726F722063B3
S1130A206F756E746572203D2025303278207C20ED
S1130A30005265636569766564206964203D2025FC
S1130A4064200A20004E6F206E6577206D657373F5
S1070A506167650071
S9030000FC
