S00E00004E6F646520312E737265633F
S11300000C9438000C9455000C9455000C94550035
S11300100C9455000C9455000C9455000C94550008
S11300200C9455000C9455000C9455000C945500F8
S11300300C9455000C9455000C9455000C945500E8
S11300400C9455000C9455000C9455000C945500D8
S11300500C9455000C9455000C9455000C945500C8
S11300600C9455000C9455000C9455000C945500B8
S113007011241FBECFEFD4E0DEBFCDBF11E0A0E05E
S1130080B1E0E6EBFBE002C005900D92A63AB107A1
S1130090D9F721E0A6EAB1E001C01D92A03BB20766
S11300A0E1F70E945B010C94D9050C9400000895BB
S11300B0813041F484E0809300148299FECF8091D2
S11300C000140895823041F485E0809300148299ED
S11300D0FECF809100140895833041F486E080932C
S11300E000148299FECF809100140895843041F465
S11300F087E0809300148299FECF809100140895C4
S113010080E0089581B38C7F81BB3098389A08953C
S11301100E94B10166E08BE20E94C70160E08FE0BB
S11301200E94C7010895EF92FF920F931F93CF93FC
S1130130DF93CDB7DEB72B970FB6F894DEBF0FBEB3
S1130140CDBFE982FA820B831C832D833E834F83C8
S1130150588769877A878B87E980FA80B701769513
S11301606795769567957695679581E30E94C701B3
S11301706E2D6295660F607E82E30E94C701602F38
S11301806F7085E30E94C701002379F07E0184E04B
S1130190E80EF11C0A5C16E3F70161917F01812FDF
S11301A00E94C7011F5F1013F7CF81E00E94DB019B
S11301B02B960FB6F894DEBF0FBECDBFDF91CF9163
S11301C01F910F91FF90EF9008959F92AF92BF926D
S11301D0CF92DF92EF92FF920F931F93CF93DF930F
S11301E0CDB7DEB72B970FB6F894DEBF0FBECDBFE9
S11301F07C0181E60E94B401C82E82E60E94B4010B
S1130200D12CCC0CDD1CCC0CDD1CCC0CDD1C829563
S113021086958770C82A85E60E94B4018F70982E4F
S1130220A9F08E010C5F1F4F0F2EF6E6AF2EF02DB6
S1130230A80E0F2EF6E6BF2EF02D8B2D0E94B401D2
S1130240F80181938F01B394BA10F7CF60E08CE288
S11302500E94C701DA82C9829B828BE0FE0131963B
S1130260D70101900D928A95E1F7C7012B960FB63D
S1130270F894DEBF0FBECDBFDF91CF911F910F91D8
S1130280FF90EF90DF90CF90BF90AF909F90089534
S11302900895CF9382E00E945800C091A601C058EF
S11302A0C80F81E00E9458009091A7019058980FC0
S11302B08C2FCF910895CF93DF93CDB7DEB72B97D3
S11302C00FB6F894DEBF0FBECDBF0E94C8020E94D5
S11302D057000E9482000E9486020E94D7020E9458
S11302E088000E9448012FEF8FE791E02150804061
S11302F09040E1F700C000C08EE091E00E942F031F
S11303000F2EF8E1CF2EF1E0DF2EF02D2FEF8FEF3F
S113031092E0215080409040E1F700C000C0CE013F
S113032001960E94E500E980FA800B811C812D81F1
S11303303E814F81588569857A858B850E94E801C5
S11303408A818F9389818F93DF92CF920E941B03BE
S11303500F900F900F900F90D9CFC49A0895C4981E
S113036008950E94BA020895CF93C82F0E94AF0146
S113037083E00E94C1028C2F0E94C10280E00E948F
S1130380C102C82F0E94AD018C2FCF910895CF9345
S1130390DF93D82FC62F0E94AF0182E00E94C102D2
S11303A08D2F0E94C1028C2F0E94C1020E94AD01B8
S11303B0DF91CF910895CF93C82F0E94AF018C2F66
S11303C0877080680E94C1020E94AD01CF91089598
S11303D0CF92DF92EF92FF920F931F93CF93DF930D
S11303E0CDB7DEB766970FB6F894DEBF0FBECDBFAC
S11303F0EC86FD860C851D851F930F9389E291E0A1
S11304009F938F930E941B030F900F900F900F9058
S1130410083E134009F050C00E944901C82ED92E4D
S1130420892F992787FD90959F93DF924C2D55270F
S113043047FD50955F93CF924BE351E05F934F9309
S11304400E941B0383E08F9389EE8F930AE511E0EA
S11304501F930F930E941B031F92CF9241E751E019
S11304605F934F930E941B031F92DF921F930F937E
S11304700E941B031F9282E08F934AE851E05F932E
S11304804F930E941B0389EEE82E898383E08A83BD
S11304900F2EF3E0FF2EF02D02E01C2D2D2D3E81BA
S11304A04F81588569857A858B850E9493000FB6A4
S11304B0F894DEBF0FBECDBF66960FB6F894DEBFCC
S11304C00FBECDBFDF91CF911F910F91FF90EF90A1
S11304D0DF90CF90089587708093A901806B8093FB
S11304E0001008950E946B0280E0E0E0F2E11082C7
S11304F08F5F8038E1F70895CF93C0E08C2F0E947E
S11305007202CF5FC830D1F7CF910895CF93DF93B4
S1130510C0E0D0E18EEA888381EA88838AED88830B
S113052082E1888388EC888388EA88838FE38883E0
S113053085ED888380E8888381E8888380E58883E3
S113054089ED888381E2888380E2888382E08883DE
S11305508BED888380E388838DEA8883188284EA1C
S1130560888386EA88830E947C028FEA8883DF91ED
S1130570CF91089587B3806B87BBBE9881E58DB911
S113058008958FB9779903C08FB1779BFDCF0895F4
S113059085B7806885BF80B7806280BF0895159B4A
S11305A0FECF83B90895179BFECF83B108958CB70E
S11305B08CBF80B18F6180B988E181B980E091E01E
S11305C09093AB018093AA019093AD018093AC0109
S11305D008950F931F93CF93DF93182F092FEB01E7
S11305E08B8181FD03C08FEF9FEF20C082FF10C07D
S11305F04E815F812C813D81421753077CF4E88151
S1130600F9819F012F5F3F4F39832883108306C0F0
S1130610E885F985812F0995892B29F72E813F815A
S11306202F5F3F4F3F832E83812F902FDF91CF91F8
S11306301F910F910895A0E0B0E0E1E2F3E00C9483
S1130640B205FE01359661917191AF018091AC01C3
S11306509091AD010E945C03E2E00C94CE050F93EF
S11306601F93CF93DF93E091AC01F091AD0123810F
S113067021FF1BC0EC0100E010E089916091AC0106
S11306807091AD01DB011896ED91FC9119978823C7
S113069031F00995892B89F30FEF1FEFEECF8AE034
S11306A00995892B11F4C80102C08FEF9FEFDF91E8
S11306B0CF911F910F910895ACE0B0E0E2E6F3E032
S11306C00C94A2057C016B018A01FC01178216823D
S11306D0838181FFBDC1CE0101964C01F701938155
S11306E0F60193FD859193FF81916F01882309F4AD
S11306F0ABC1853239F493FD859193FF81916F01EC
S1130700853229F4B70190E00E94E902E7CF512C29
S1130710312C20E02032A0F48B3269F030F48032A6
S113072059F0833269F420612CC08D3239F0803362
S113073039F4216026C02260246023C0286021C0CF
S113074027FD27C030ED380F3A3078F426FF06C075
S1130750FAE05F9E300D1124532E13C08AE0389EB8
S1130760300D1124332E20620CC08E3221F426FD6C
S11307706BC1206406C08C3611F4206802C0883630
S113078041F4F60193FD859193FF81916F018111ED
S1130790C1CF982F9F7D9554933028F40C5F1F4F41
S11307A0FFE3F9830DC0833631F0833771F083356D
S11307B009F05BC022C0F801808189830E5F1F4F5E
S11307C044244394512C540115C03801F2E06F0EB7
S11307D0711CF801A080B18026FF03C0652D70E074
S11307E002C06FEF7FEFC5012C870E9439052C01F1
S11307F083012C852F77222E17C03801F2E06F0E6B
S1130800711CF801A080B18026FF03C0652D70E043
S113081002C06FEF7FEFC5012C870E942E052C01CB
S11308202C852068222E830123FC1BC0832D90E09D
S113083048165906B0F4B70180E290E00E94E9023C
S11308403A94F4CFF50127FC859127FE81915F014D
S1130850B70190E00E94E90231103A94F1E04F1A96
S113086051084114510471F7E5C0843611F08936FA
S113087039F5F80127FF07C0608171818281938176
S11308800C5F1F4F08C060817181882777FD8095B8
S1130890982F0E5F1F4F2F76B22E97FF09C09095A9
S11308A08095709561957F4F8F4F9F4F2068B22E32
S11308B02AE030E0A4010E944405A82EA81844C0F0
S11308C0853729F42F7EB22E2AE030E025C0F22F9E
S11308D0F97FBF2E8F36C1F018F4883579F0B4C093
S11308E0803719F0883721F0AFC02F2F2061B22E46
S11308F0B4FE0DC08B2D8460B82E09C024FF0AC03D
S11309009F2F9660B92E06C028E030E005C020E194
S113091030E002C020E132E0F801B7FE07C0608198
S11309207181828193810C5F1F4F06C06081718148
S113093080E090E00E5F1F4FA4010E944405A82EA2
S1130940A818FB2DFF77BF2EB6FE0BC02B2D2E7FD4
S1130950A51450F4B4FE0AC0B2FC08C02B2D2E7EA0
S113096005C07A2C2B2D03C07A2C01C0752C24FFD2
S11309700DC0FE01EA0DF11D8081803311F4297E42
S113098009C022FF06C07394739404C0822F867832
S113099009F0739423FD13C020FF06C05A2C73146E
S11309A018F4530C5718732C731468F4B70180E2CD
S11309B090E02C870E94E90273942C85F5CF731480
S11309C010F4371801C0312C24FF12C0B70180E3A2
S11309D090E02C870E94E9022C8522FF17C021FF9A
S11309E003C088E590E002C088E790E0B7010CC03E
S11309F0822F867859F021FD02C080E201C08BE28B
S1130A0027FD8DE2B70190E00E94E902A51438F4B5
S1130A10B70180E390E00E94E9025A94F7CFAA94C8
S1130A20F401EA0DF11D8081B70190E00E94E90212
S1130A30A110F5CF332009F451CEB70180E290E044
S1130A400E94E9023A94F6CFF7018681978102C0A9
S1130A508FEF9FEF2C96E2E10C94BE05FC0105900C
S1130A60615070400110D8F7809590958E0F9F1FAC
S1130A700895FC016150704001900110D8F78095F1
S1130A8090958E0F9F1F0895FA01AA27283051F1DF
S1130A90203181F1E8946F936E7F6E5F7F4F8F4FAB
S1130AA09F4FAF4FB1E03ED0B4E03CD0670F781F0A
S1130AB0891F9A1FA11D680F791F8A1F911DA11DEF
S1130AC06A0F711D811D911DA11D20D009F4689428
S1130AD03F912AE0269F11243019305D3193DEF6D0
S1130AE0CF010895462F4770405D4193B3E00FD086
S1130AF0C9F7F6CF462F4F70405D4A3318F0495D71
S1130B0031FD4052419302D0A9F7EACFB4E0A69553
S1130B109795879577956795BA95C9F70097610575
S1130B20710508959B01AC010A2E069457954795CB
S1130B3037952795BA95C9F7620F731F841F951FC0
S1130B40A01D08952F923F924F925F926F927F92D1
S1130B508F929F92AF92BF92CF92DF92EF92FF92C9
S1130B600F931F93CF93DF93CDB7DEB7CA1BDB0B75
S1130B700FB6F894DEBF0FBECDBF09942A8839881A
S1130B8048885F846E847D848C849B84AA84B98421
S1130B90C884DF80EE80FD800C811B81AA81B9812D
S1130BA0CE0FD11D0FB6F894DEBF0FBECDBFED0141
S1090BB00895F894FFCF44
S1130BB60000000300000000CF02D3020000496ECB
S1130BC6697420646F6E6500526563697665642096
S1130BD66964203D2025640A00526563656976656B
S1130BE664206964203D20256420004A6F7973746B
S1130BF669636B20706F73203A2078203D2025644A
S1130C062C2079203D2025640A0053656E74206DDE
S1130C16657373616765206964203D20256420201F
S1130C260053656E74206D65737361676520646136
S1130C367461203D20256420200053656E74206D68
S1130C46657373616765206C656E677468203D2003
S1090C56256420200A00C1
S9030000FC
