S00E00004E6F646520312E737265633F
S11300000C94B4010C94D1010C9417020C94D101FA
S11300100C94D1010C94D1010C94D1010C94D10114
S11300200C94D1010C94D1010C94D1010C94D10104
S11300300C94D1010C94D1010C94D1010C94D101F4
S11300400C94D1010C94D1010C94D1010C94D101E4
S11300500C94D1010C94D1010C94D1010C94D101D4
S11300600C94D1010C94D1010C94D1010C94D101C4
S1130070000000000000000000065F5F06000000B2
S11300800007070007070000147F7F147F7F140018
S1130090242E6B6B3A120000466630180C66620020
S11300A0307A4F5D377A48000407030000000000EF
S11300B0001C3E63410000000041633E1C00000040
S11300C0082A3E1C1C3E2A0808083E3E0808000078
S11300D000A0E0600000000008080808080800000C
S11300E000006060000000006030180C060301008E
S11300F03E7F594D7F3E000042427F7F40400000DA
S1130100627359496F660000226349497F360000D3
S1130110181C16137F7F1000276745457D390000A2
S11301203C7E4B4979300000036371190F070000CE
S1130130367F49497F360000064F49693F1E00005B
S113014000006C6C0000000000A0EC6C00000000DB
S1130150081C366341000000141414141414000025
S1130160004163361C080000020351590F060000C9
S11301703E7F415D5D1F1E007C7E13137E7C00006C
S1130180417F7F49497F36001C3E63414163220021
S1130190417F7F41637F1C00417F7F495D41630054
S11301A0417F7F491D0103001C3E6341517372006E
S11301B07F7F08087F7F000000417F7F41000000AF
S11301C0307040417F3F0100417F7F081C7763000E
S11301D0417F7F41406070007F7F060C067F7F0077
S11301E07F7F060C187F7F001C3E6341633E1C002A
S11301F0417F7F49090F06001E3F21717F5E000089
S1130200417F7F19396F460026674D597B320000C4
S113021003417F7F410300007F7F40407F7F0000D8
S11302201F3F60603F1F00007F7F3018307F7F00DA
S113023063771C081C776300074F78784F0700002A
S11302406773594D47637100007F7F41410000008F
S11302500103060C183060000041417F7F0000005C
S1130260080C0603060C0800808080808080808053
S11302700000030704000000207454543C7840003C
S1130280413F7F44447C3800387C44446C2800005F
S1130290307848493F7F4000387C54545C18000053
S11302A0487E7F490302000098BCA4A4F87C0400A3
S11302B0417F7F08047C780000447D7D400000007D
S11302C040C484FD7D000000417F7F10386C4400F1
S11302D000417F7F400000007C7C0C180C7C78007F
S11302E07C7C04047C780000387C44447C38000026
S11302F084FCF8A4243C1800183C24A4F8FC8400D2
S1130300447C78441C180000485C54547424000055
S113031000043E7F442400003C7C40403C7C400080
S11303201C3C60603C1C00003C7C6030607C3C00F9
S1130330446C3810386C44009CBCA0A0FC7C0000C9
S11303404C64745C4C64000008083E774141000032
S113035000000077770000004141773E0808000064
S1130360020301030203010011241FBECFEFD4E0F6
S1130370DEBFCDBF12E0A0E0B1E0EEEEF0E102C0DE
S113038005900D92AA33B107D9F722E0AAE3B2E0AF
S113039001C01D92A634B207E1F70E9458030C94E1
S11303A075080C9400000895813041F484E0809332
S11303B000148299FECF809100140895823041F494
S11303C085E0809300148299FECF809100140895F3
S11303D0833041F486E0809300148299FECF8091AB
S11303E000140895843041F487E0809300148299C6
S11303F0FECF80910014089580E0089581B38C7F2E
S113040081BB3098389A0895811103C080B38170FC
S11304100895813021F480B38695817008958230E7
S113042021F485B180958170089580E008951F922C
S11304300F920FB60F9211248F9381E080933A02AA
S11304408F910F900FBE0F901F9018950E94740308
S11304500E94980366E08BE20E94770360E08FE0DD
S11304600E94770385B7886085BF8BB780688BBF90
S11304700895EF92FF920F931F93CF93DF93CDB71D
S1130480DEB72B970FB6F894DEBF0FBECDBFE9825F
S1130490FA820B831C832D833E834F83588769879D
S11304A07A878B87E980FA80B70176956795769588
S11304B067957695679581E30E9477036E2D629523
S11304C0660F607E82E30E947703602F6F7085E37E
S11304D00E947703002379F07E0184E0E80EF11C8A
S11304E00A5C16E3F70161917F01812F0E94770373
S11304F01F5F1013F7CF81E00E948B032B960FB67A
S1130500F894DEBF0FBECDBFDF91CF911F910F9145
S1130510FF90EF900895DF92EF92FF920F931F9355
S1130520CF93DF93CDB7DEB72B970FB6F894DEBF2A
S11305300FBECDBF80913B02882329F10E94D902CE
S1130540182F81E00E940402D82E84E08B831C8340
S113055081E00E9416058D8380E00E94160599EEC5
S1130560E92E998393E09A830F2EF3E0FF2EF02D6A
S11305700B811C812D81382F4D2D588569857A85F5
S11305808B850E9439022B960FB6F894DEBF0FBEFE
S1130590CDBFDF91CF911F910F91FF90EF90DF902E
S11305A0089581E080933B02089510923B020895E0
S11305B00895CF9382E00E94D401C0913C02C058B8
S11305C0C80F81E00E94D40190913D029058980F89
S11305D08C2FCF9108950E94D902692F982F762FDE
S11305E08932B4F0462F552747FD509555231CF406
S11305F0519541955109282F332727FD30953323F1
S11306001CF4319521953109421753070CF446C067
S1130610983DACF4462F552747FD509555231CF4BF
S1130620519541955109282F332727FD30953323C0
S11306301CF4319521953109421753078CF1793215
S1130640ACF0482F552747FD509555231CF4519580
S113065041955109262F332727FD309533231CF468
S113066031952195310942175307E4F0783DE4F4BC
S1130670992787FD909599231CF49195819591096B
S1130680262F332727FD309533231CF431952195EC
S113069031098217930754F084E0089581E00895A6
S11306A080E0089582E0089584E0089583E0089549
S11306B00E9432050E94D3010E94FE010E94BA04E6
S11306C00E9441050E9426020E94D80278948AE181
S11306D092E00E94CB050E9424040E948B02FBCF6F
S11306E0C49A0895C49808950E9424050895CF9348
S11306F0DF93D82FC62F0E94720382E00E942B053D
S11307008D2F0E942B058C2F0E942B050E947003B5
S1130710DF91CF910895CF93C82F0E9472038C2F3D
S1130720877080680E942B050E947003CF91089502
S11307300E94720380EC0E942B050E9470030895AE
S1130740BF92CF92DF92EF92FF920F931F93CF93BA
S1130750DF938C0160E08CE00E94EE041F930F9302
S113076089E292E09F938F938EEF91E09F938F9312
S11307700E94530578010F900F900F900F900F90E7
S11307800F90C0E0D0E00F2EF9E2CF2EF2E0DF2E82
S1130790F02DBC2E6C2F6F5F8CE00E94EE04F801EC
S11307A08189C817A0F4F70183898F9382898F9375
S11307B0DF92CF928EEF91E09F938F930E94530527
S11307C00F900F900F900F900F900F900AC02EEF84
S11307D031E04AE050E061E070E08FE292E00E9494
S11307E097056B2D80E00E94EE04F801818988232F
S11307F091F06089862F90E001968C179D0759F43B
S11308006F5F80E00E94EE046EEF71E08AE290E098
S11308100E94650506C06EEF71E080E290E00E94E0
S113082065052196F2E0EF0EF11CC730D10509F001
S1130830B0CF80E0DF91CF911F910F91FF90EF90A7
S1130840DF90CF90BF9008950E94EB02823059F45C
S1130850E0910001F09101018089882309F44FC0DF
S11308608150808B4CC00E94EB02833081F4E09174
S11308700001F09101014089218930E0842F90E04A
S1130880019682179307DCF54F5F408B38C00E94B6
S1130890EB028130F9F4E0910001F09101018089CB
S11308A090E00996880F991FE80FF91F80819181C4
S11308B0009731F090930101809300010E94B004ED
S11308C0E0910001F091010102A0F3A1E02D309725
S11308D0A1F415C00E94EB02811111C0E091000146
S11308E0F091010180A191A1009749F09093010139
S11308F0809300010E94B00402C0099506C0809153
S11309000001909101010E94A0030E94EB02843037
S1130910E1F78FEF9FE50197F1F700C0000008951C
S1130920877080933F02806B809300100895AEE33C
S1130930B2E0982F9F789C938F70E0E0F0E1808381
S11309408C9182958F708061808308950E949004B9
S113095080E0E0E0F2E110828F5F8038E1F70895F3
S1130960CF93C0E08C2F0E94A604CF5FC830D1F78C
S1130970CF910895CF93DF93C0E0D0E18EEA8883CE
S113098081EA88838AED888382E1888388EC88837E
S113099088EA88838FE3888385ED888380E8888369
S11309A081E8888380E5888389ED888381E2888370
S11309B080E2888382E088838BED888380E3888368
S11309C08DEA8883188284EA888386EA88830E9471
S11309D0B0048FEA8883DF91CF910895CF93C82F15
S11309E0862F0E9490048C2F0E949704CF91089523
S11309F08A3039F460913F026F5F80E00E94EE0418
S1130A0013C0E82FF0E0EE0FFF1FEE0FFF1FEE0FF5
S1130A10FF1FE059F04088E0A0E0B2E194919C937C
S1130A20815031968111FACF80E00895811104C07C
S1130A3084E00E94D4010895813021F483E00E946F
S1130A40D401089580E0089587B3806B87BBBE9876
S1130A5081E58DB908958FB9779903C08FB1779BDC
S1130A60FDCF089585B7806885BF80B7806280BF59
S1130A700895159BFECF83B90895179BFECF83B1CC
S1130A8008958CB78CBF80B18F6180B988E181B93A
S1130A908CE092E090934102809340029093430251
S1130AA0809342020895A0E0B0E0E9E5F5E00C94FB
S1130AB04E08AE01475F5F4F6F8178858D819E81BF
S1130AC00E94F805E2E00C946A080F931F93CF93F9
S1130AD0DF93182F092FEB018B8181FD03C08FEF6A
S1130AE09FEF20C082FF10C04E815F812C813D8129
S1130AF0421753077CF4E881F9819F012F5F3F4F30
S1130B0039832883108306C0E885F985812F0995E8
S1130B10892B29F72E813F812F5F3F4F3F832E83FF
S1130B20812F902FDF91CF911F910F910895A0E015
S1130B30B0E0EDE9F5E00C9444086B014A01790159
S1130B40D90113962C9121FF1DC0C0E0D0E0C81537
S1130B50D905D9F08C015C01AC0CBD1CC8010A1587
S1130B601B0571F00F5F1F4FD7011896ED91FC9193
S1130B701997B701DC018C910995892B79F305C08C
S1130B802196E5CF80E090E001C0CE01CDB7DEB77D
S1130B90ECE00C9460080F931F93CF93DF93E091E4
S1130BA04202F0914302238121FF1BC0EC0100E0CB
S1130BB010E089916091420270914302DB01189622
S1130BC0ED91FC911997882331F00995892B89F3CC
S1130BD00FEF1FEFEECF8AE00995892B11F4C801BE
S1130BE002C08FEF9FEFDF91CF911F910F91089576
S1130BF0ACE0B0E0EEEFF5E00C943E087C016B0154
S1130C008A01FC0117821682838181FFBDC1CE0156
S1130C1001964C01F7019381F60193FD859193FFB1
S1130C2081916F01882309F4ABC1853239F493FDB6
S1130C30859193FF81916F01853229F4B70190E08A
S1130C400E946505E7CF512C312C20E02032A0F41E
S1130C508B3269F030F4803259F0833269F42061C8
S1130C602CC08D3239F0803339F4216026C02260E3
S1130C70246023C0286021C027FD27C030ED380F31
S1130C803A3078F426FF06C0FAE05F9E300D112456
S1130C90532E13C08AE0389E300D1124332E206267
S1130CA00CC08E3221F426FD6BC1206406C08C3644
S1130CB011F4206802C0883641F4F60193FD859151
S1130CC093FF81916F018111C1CF982F9F7D95541E
S1130CD0933028F40C5F1F4FFFE3F9830DC0833674
S1130CE031F0833771F0833509F05BC022C0F8011D
S1130CF0808189830E5F1F4F44244394512C5401F7
S1130D0015C03801F2E06F0E711CF801A080B180AB
S1130D1026FF03C0652D70E002C06FEF7FEFC501B1
S1130D202C870E94D5072C0183012C852F77222E36
S1130D3017C03801F2E06F0E711CF801A080B18079
S1130D4026FF03C0652D70E002C06FEF7FEFC50181
S1130D502C870E94CA072C012C852068222E83012F
S1130D6023FC1BC0832D90E048165906B0F4B7014C
S1130D7080E290E00E9465053A94F4CFF50127FCE7
S1130D80859127FE81915F01B70190E00E9465057E
S1130D9031103A94F1E04F1A51084114510471F79B
S1130DA0E5C0843611F0893639F5F80127FF07C00C
S1130DB060817181828193810C5F1F4F08C06081C3
S1130DC07181882777FD8095982F0E5F1F4F2F76AE
S1130DD0B22E97FF09C090958095709561957F4FCD
S1130DE08F4F9F4F2068B22E2AE030E0A4010E946A
S1130DF0E007A82EA81844C0853729F42F7EB22E08
S1130E002AE030E025C0F22FF97FBF2E8F36C1F0E3
S1130E1018F4883579F0B4C0803719F0883721F098
S1130E20AFC02F2F2061B22EB4FE0DC08B2D846075
S1130E30B82E09C024FF0AC09F2F9660B92E06C0A1
S1130E4028E030E005C020E130E002C020E132E0DB
S1130E50F801B7FE07C060817181828193810C5FC4
S1130E601F4F06C06081718180E090E00E5F1F4FCC
S1130E70A4010E94E007A82EA818FB2DFF77BF2E1F
S1130E80B6FE0BC02B2D2E7FA51450F4B4FE0AC061
S1130E90B2FC08C02B2D2E7E05C07A2C2B2D03C04E
S1130EA07A2C01C0752C24FF0DC0FE01EA0DF11D42
S1130EB08081803311F4297E09C022FF06C0739417
S1130EC0739404C0822F867809F0739423FD13C0B1
S1130ED020FF06C05A2C731418F4530C5718732CA3
S1130EE0731468F4B70180E290E02C870E946505D2
S1130EF073942C85F5CF731410F4371801C0312C7A
S1130F0024FF12C0B70180E390E02C870E9465059E
S1130F102C8522FF17C021FF03C088E590E002C0A2
S1130F2088E790E0B7010CC0822F867859F021FD44
S1130F3002C080E201C08BE227FD8DE2B70190E0A0
S1130F400E946505A51438F4B70180E390E00E947F
S1130F5065055A94F7CFAA94F401EA0DF11D808136
S1130F60B70190E00E946505A110F5CF332009F484
S1130F7051CEB70180E290E00E9465053A94F6CF25
S1130F80F7018681978102C08FEF9FEF2C96E2E1F3
S1130F900C945A08FC010590615070400110D8F778
S1130FA0809590958E0F9F1F0895FC0161507040AD
S1130FB001900110D8F7809590958E0F9F1F08958A
S1130FC0FA01AA27283051F1203181F1E8946F9376
S1130FD06E7F6E5F7F4F8F4F9F4FAF4FB1E03ED01C
S1130FE0B4E03CD0670F781F891F9A1FA11D680FBA
S1130FF0791F8A1F911DA11D6A0F711D811D911DED
S1131000A11D20D009F468943F912AE0269F112461
S11310103019305D3193DEF6CF010895462F4770C5
S1131020405D4193B3E00FD0C9F7F6CF462F4F7020
S1131030405D4A3318F0495D31FD4052419302D07E
S1131040A9F7EACFB4E0A695979587957795679524
S1131050BA95C9F700976105710508959B01AC0124
S11310600A2E06945795479537952795BA95C9F74B
S1131070620F731F841F951FA01D08952F923F9226
S11310804F925F926F927F928F929F92AF92BF9294
S1131090CF92DF92EF92FF920F931F93CF93DF9340
S11310A0CDB7DEB7CA1BDB0B0FB6F894DEBF0FBE9D
S11310B0CDBF09942A88398848885F846E847D84EA
S11310C08C849B84AA84B984C884DF80EE80FD80EC
S11310D00C811B81AA81B981CE0FD11D0FB6F89462
S11110E0DEBF0FBECDBFED010895F894FFCF23
S11310EEDA0153746F70207468652067616D650052
S11310FE00000000000000000000000000000000DE
S113110E0000DA01D5025374617274206E65772083
S113111E67616D6500000000000000000000000023
S113112E000000000000DA01D102546F70207363D6
S113113E6F72650000000000000000000000000057
S113114E00000000000000000000DA0100004E65FF
S113115E772067616D65000000000000000000024A
S113116E2601020100000000000000000000DA0168
S113117E0000446966666963756C7479000000004A
S113118E000000000000000000000000000000004D
S113119E0000B601000053657474696E6773000035
S11311AE0000000000000001920100000000000099
S11311BE000000000000DA0100004D61696E206D30
S11311CE656E750000000000000000036E014A0108
S11311DEB601000000000000000000000000000046
S11311EE000300000000F8040000000000000003EB
S11311FE0000000039053D050000496E6974206445
S113120E6F6E65005465737400252D31357300209F
S10D121E20202020202020202000A2
S9030000FC
