S00E00004E6F646520312E737265633F
S11300000C94B4050C94D1050C943A060C94D105C7
S11300100C94D1050C94D1050C94D1050C94D10504
S11300200C94D1050C94D1050C94D1050C94D105F4
S11300300C94D1050C94D1050C94D1050C94D105E4
S11300400C94D1050C94D1050C94D1050C94D105D4
S11300500C94D1050C94D1050C94D1050C94D105C4
S11300600C94D1050C94D1050C94D1050C94D105B4
S1130070000000000000000000000000000000007C
S1130080000000000000000000000000000000006C
S1130090000000000000000000000000000000005C
S11300A0000000000000000000000000000000004C
S11300B0000000000000000000000000000000003C
S11300C0000000000000000000000000000000002C
S11300D0000000000000000000000000000000001C
S11300E0000000000000000000000000000000000C
S11300F000000000000000000000000000000000FC
S113010000000000000000000000000000000000EB
S113011000000000000000000000000000000000DB
S113012000000000000000000000000000000000CB
S113013000000000000000000000000000000000BB
S113014000000000000000000000000000000000AB
S1130150000000000000000000000000000000009B
S1130160000000000000000000000000000000008B
S1130170000000000000000000000000000000007B
S113018000000000030F1C18303030181800000065
S11301900000000103030303010000030300010343
S11301A0030301010303030100000001030303032C
S11301B00301000000000000000001070F1C1830BC
S11301C030303030181F0700000303000000000324
S11301D003000001030303030301000003030101FF
S11301E00303030000000000000000000000000002
S11301F000000000000000000000000000000000FB
S1130200000000FCFE07036363C3C6DCF8F0C00013
S1130210007CFEC7830303FEFF0300FFFFC0808052
S113022000FFFF800000FFFF0000FCFE9F1B3373F4
S1130230E2C60000000000000000F8FC0E06030304
S11302400303070E3CF8E0000080F07E0F0F7CE013
S11302508000FCFE9F1B3373E2C60000FFFF80009A
S113026000C0C0000000000000000000000000000A
S1130270000000000000000000000000000000007A
S1130280000000000000000000000000000000006A
S1130290000000000000000000000000000000005A
S11302A0000000000000000000000000000000004A
S11302B0000000000000000000000000000000003A
S11302C0000000000000000000000000000000002A
S11302D0000000000000000000000000000000001A
S11302E0000000000000000000000000000000000A
S11302F000000000000000000000000000000000FA
S113030000000000000000000000000000000000E9
S113031000000000000000000000000000000000D9
S113032000000000000000000000000000000000C9
S113033000000000000000000000000000000000B9
S113034000000000000000000000000000000000A9
S11303500000000000000000000000000000000099
S11303600000000000000000000000000000000089
S11303700000000000000000000000000000000079
S11303800000000000000000000000000000000069
S11303900000000000000000000000000000000059
S11303A00000000000000000000000000000000049
S11303B00000000000000000000000000000000039
S11303C00000000000000000000000000000000029
S11303D00000000000000000000000000000000019
S11303E00000000000000000000000000000000009
S11303F000000000000000000000000000000000F9
S113040000000000000000000000000000000000E8
S113041000000000000000000000000000000000D8
S113042000000000000000000000000000000000C8
S113043000000000000000000000000000000000B8
S113044000000000000000000000000000000000A8
S11304500000000000000000000000000000000098
S11304600000000000000000000000000000000088
S113047000E0705868341C06060301010000000007
S11304800000000000000000000000000000000068
S11304900000000000000000000000000000000058
S11304A00000000000000000000000000000000048
S11304B00000000000000000000000000000000038
S11304C00000000000000000000000000000000028
S11304D00000000000000000000000000000000018
S11304E00000000000000000000000000000000008
S11304F0000000000000000000008080C040607028
S11305003018080C0406020301010000000000007A
S113051000000000000000000000000000000000D7
S113052000000000000000000000000000000000C7
S113053000000000000000000000000000000000B7
S113054000000000000000000000000000000000A7
S11305500000000000000000000000000000000097
S11305600000000000000000000000000000000087
S11305700000000000000000000000000000000077
S113058000000000000000008080C0E06030101017
S11305900808040603010101010000000000000036
S11305A00000000000000000000000000000000047
S11305B00000000000000000000000000000000037
S11305C00000000000000000000000000000000027
S11305D00000000000000000000000000000000017
S11305E00000000000000000000000000000000007
S11305F000000000000000000000000000000000F7
S113060000000000000000000000000000000000E6
S11306100000000000000080C0C0C0602030100056
S11306201808040402030302010100000000000092
S113063000000000000000000000000000000000B6
S113064000000000000000000000000000000000A6
S11306500000000000000000000000000000000096
S11306600000000000000000000000000000000086
S11306700000000000000000000000000000000076
S11306800000000000000000000000000000000066
S11306900000000000000000000000000000000056
S11306A000000000000000808040C0E06020303086
S11306B01010100808080C0C0806060603020101B5
S11306C00000000000000000000000000000000026
S11306D00000000000000000000000000000000016
S11306E00000000000000000000000000000000006
S11306F000000000000000000000000000000000F6
S113070000000000000000000000000000000000E5
S113071000000000000000000000000000000000D5
S113072000000000000000000000000000000000C5
S113073000000000000000000000000000000000B5
S11307408080C0406020101018040C0602030301CE
S11307500000000000000000000000000000000095
S11307600000000000000000000000000000000085
S11307700000000000000000000000000000000075
S11307800000000000000000000000000000000065
S11307900000000000000000000000000000000055
S11307A00000000000000000000000000000000045
S11307B00000000000000000000000000000000035
S11307C000000000000000000000000000000080A5
S11307D080C040402030101808080C0606020301AF
S11307E00100000000000000000000000000000004
S11307F001010101010101010001000101010101E7
S113080001010101010101010101010101010101D4
S113081001010101010101010101010101010101C4
S113082001010101010101000101010101010101B5
S113083001010101010101010101010101010101A4
S11308400101010101010101010101010101010194
S11308500101010101010101010101010101018104
S113086081C1E1216131110919190D0D070303003B
S1130870000000000000000000065F5F06000000AA
S11308800007070007070000147F7F147F7F140010
S1130890242E6B6B3A120000466630180C66620018
S11308A0307A4F5D377A48000407030000000000E7
S11308B0001C3E63410000000041633E1C00000038
S11308C0082A3E1C1C3E2A0808083E3E0808000070
S11308D000A0E06000000000080808080808000004
S11308E000006060000000006030180C0603010086
S11308F03E7F594D7F3E000042427F7F40400000D2
S1130900627359496F660000226349497F360000CB
S1130910181C16137F7F1000276745457D3900009A
S11309203C7E4B4979300000036371190F070000C6
S1130930367F49497F360000064F49693F1E000053
S113094000006C6C0000000000A0EC6C00000000D3
S1130950081C36634100000014141414141400001D
S1130960004163361C080000020351590F060000C1
S11309703E7F415D5D1F1E007C7E13137E7C000064
S1130980417F7F49497F36001C3E63414163220019
S1130990417F7F41637F1C00417F7F495D4163004C
S11309A0417F7F491D0103001C3E63415173720066
S11309B07F7F08087F7F000000417F7F41000000A7
S11309C0307040417F3F0100417F7F081C77630006
S11309D0417F7F41406070007F7F060C067F7F006F
S11309E07F7F060C187F7F001C3E6341633E1C0022
S11309F0417F7F49090F06001E3F21717F5E000081
S1130A00417F7F19396F460026674D597B320000BC
S1130A1003417F7F410300007F7F40407F7F0000D0
S1130A201F3F60603F1F00007F7F3018307F7F00D2
S1130A3063771C081C776300074F78784F07000022
S1130A406773594D47637100007F7F414100000087
S1130A500103060C183060000041417F7F00000054
S1130A60080C0603060C080080808080808080804B
S1130A700000030704000000207454543C78400034
S1130A80413F7F44447C3800387C44446C28000057
S1130A90307848493F7F4000387C54545C1800004B
S1130AA0487E7F490302000098BCA4A4F87C04009B
S1130AB0417F7F08047C780000447D7D4000000075
S1130AC040C484FD7D000000417F7F10386C4400E9
S1130AD000417F7F400000007C7C0C180C7C780077
S1130AE07C7C04047C780000387C44447C3800001E
S1130AF084FCF8A4243C1800183C24A4F8FC8400CA
S1130B00447C78441C180000485C5454742400004D
S1130B1000043E7F442400003C7C40403C7C400078
S1130B201C3C60603C1C00003C7C6030607C3C00F1
S1130B30446C3810386C44009CBCA0A0FC7C0000C1
S1130B404C64745C4C64000008083E77414100002A
S1130B5000000077770000004141773E080800005C
S1130B60020301030203010011241FBECFEFD4E0EE
S1130B70DEBFCDBF13E0A0E0B1E0E0E3FFE102C0DF
S1130B8005900D92A43DB107D9F723E0A4EDB3E09D
S1130B9001C01D92A43FB207E1F70E942A090C94F8
S1130BA0960F0C9400000895813031F484E0809312
S1130BB000148299FECF17C0823031F485E080930F
S1130BC000148299FECF0FC0833031F486E0809305
S1130BD000148299FECF07C0843041F487E08093EB
S1130BE000148299FECF80910014089580E0089546
S1130BF081B38C7F81BB3098389A0895811102C0EB
S1130C0080B30AC0813021F480B386958170089541
S1130C10823021F485B180958170089580E0089533
S1130C20CF93C82F0E94FE052C2F30E0F901EC521F
S1130C30FC4F882369F08081882311F0833011F4FC
S1130C4082E004C08150823078F481E080830CC05B
S1130C5080819FEF980F923010F483E0F7CF8823C0
S1130C6011F0833009F41082F901EC52FC4F8081B9
S1130C70CF9108951F920F920FB60F9211248F9364
S1130C8081E08093D7038F910F900FBE0F901F9038
S1130C9018958091D70308950E9457090E94A009CE
S1130CA063E08BE20E94740960E08FE00E947409A3
S1130CB085B7886085BF8BB780688BBF0895EF9236
S1130CC0FF920F931F93CF93DF93CDB7DEB72B978C
S1130CD00FB6F894DEBF0FBECDBFE982FA820B8354
S1130CE01C832D833E834F83588769877A878B873C
S1130CF0E980FA80B70183E0769567958A95E1F7F4
S1130D0081E30E9474096E2D6295660F607E82E312
S1130D100E947409602F6F7085E30E9474097E013C
S1130D2084E0E80EF11C10E0101749F0F70161911E
S1130D307F0186E3810F0E9474091F5FF5CF81E074
S1130D400E948E092B960FB6F894DEBF0FBECDBF5E
S1130D50DF91CF911F910F91FF90EF9008950F9322
S1130D601F93CF93DF93EC0181E60E94590998E029
S1130D70899F800111241983088382E60E945909FE
S1130D80829586958770082B1983088385E60E94CF
S1130D9059098F708A8310E08A81181750F486E607
S1130DA0810F0E945909FE01E10FF11D83831F5F2A
S1130DB0F3CF60E08CE20E9474091092D703DF91B4
S1130DC0CF911F910F91089547E050E060E070E0EB
S1130DD08BED93E00C94880E83EC92E00E94890CD6
S1130DE081E08093E40383E08093E5031092E303BE
S1130DF01092E20308951092E4030895CF93DF93D1
S1130E008091E203882309F43FC00E94C90A60E08C
S1130E1080E00E940F0B67EA72E080ED92E00E948E
S1130E204C0C61E080E00E940F0B8091E3031F9261
S1130E308F9381EE92E09F938F9387EA92E09F9342
S1130E408F930E943A0C62E080E00E940F0B67EAE5
S1130E5072E083EF92E00E944C0C64E080E00E9418
S1130E600F0B67EA72E080E093E00E944C0C65E0AF
S1130E7080E00E940F0B0F900F900F900F900F9037
S1130E800F9067EA72E031C00E94C90A60E080E016
S1130E900E940F0B8091E5031F928F938BE193E0E7
S1130EA09F938F93C7EAD2E0DF93CF930E943A0CCB
S1130EB061E080E00E940F0B8091E3031F928F9307
S1130EC08CE293E09F938F93DF93CF930E943A0C2D
S1130ED062E080E00E940F0B8DB79EB70C960FB6B0
S1130EE0F8949EBF0FBE8DBFBE0180E193E0DF91F9
S1130EF0CF910C944C0CCF92DF92EF92FF920F9310
S1130F001F93CF93DF9360E080E00E940F0B67EAAA
S1130F1072E08DE393E00E944C0C8BEDC82E83E0CD
S1130F20D82EC1E0D0E09AE4E92E93E0F92E07EA46
S1130F3012E06C2F80E00E940F0BF60181916F018B
S1130F401F928F93DF93CF93FF92EF921F930F9390
S1130F500E943A0C2196EDB7FEB738960FB6F89476
S1130F60FEBF0FBEEDBFC830D10519F7DF91CF9199
S1130F701F910F91FF90EF90DF90CF900895909183
S1130F80E103981710F48093E103E1EEF3E0A2EE9D
S1130F90B3E082919E91891710F490838C9383E03F
S1130FA0EB3DF807B1F747E050E060E070E08BED0F
S1130FB093E00C94980EEF92FF920F931F93CF93AC
S1130FC0DF93CDB7DEB766970FB6F894DEBF0FBEDA
S1130FD0CDBF8091E403882309F48EC08091E2039D
S1130FE081118AC010910001111119C081E00E9481
S1130FF01006823049F48091E3038F5F8093E3030A
S113100081E08093DA0302C01092DA0381E00E9447
S1131010010C8093D90380E00E94010C21C011309F
S113102009F581E00E941006813019F40E94B10A8A
S113103019C00E94AD0A82E00E941006823041F479
S11310408091E3038F5F8093E3031093DA0302C07C
S11310501092DA030E94C20890589093D9038058E2
S11310608093D80384E08E872091D903288B309114
S1131070D803398B4091DA034A8B89EEE82E8C87AA
S113108083E08D8753E0F52E04E01F855B896C892E
S11310907D898E890E945F060E944906882351F14A
S11310A0CE0101960E94AF0689819A818A3E9340BF
S11310B009F58091E50381508093E50381111AC0FD
S11310C081E08093E2030E94B10A8091E3030E94CD
S11310D0BF0784E593E00E94890C80E790E00E94BA
S11310E0CA0B8FEF9FEF2EE0815090402040E1F734
S11310F000C000000E94FE0666960FB6F894DEBF9C
S11311000FBECDBFDF91CF911F910F91FF90EF9054
S11311100895EBEDF3E0119283E0E23EF807D9F78E
S113112047E050E060E070E08BED93E00E94980EA1
S11311300E94C90A60E080E00E940F0B67EA72E037
S113114081E693E00C944C0C109200010E94C90AB1
S113115060E080E00E940F0B67EA72E083E793E0AF
S11311600C944C0C81E0809300010E94C90A60E059
S113117080E00E940F0B67EA72E089E893E00C9428
S11311804C0C0895CF9382E00E94D405C091E603ED
S1131190C058C80F81E00E94D4059091E70390588D
S11311A0980F8C2FCF9108950E94C208692F89321D
S11311B08CF0292F332727FD309537FF03C0319555
S11311C021953109482F552747FD50952417350798
S11311D0A4F43AC0883D8CF4292F332727FD309599
S11311E037FF03C0319521953109E82FFF27E19599
S11311F00CF4F0952E173F074CF169328CF09927C7
S113120087FD909597FF03C0919581959109262FAD
S1131210332727FD309582179307D4F084E008958F
S1131220683DE4F7992787FD909597FF03C0919552
S113123081959109462F552741950CF450958417B3
S1131240950764F783E0089581E0089580E00895A8
S113125082E008950E94190C0E94D3050E94F805AB
S11312600E94D40A0E94280C0E944C060E94C108C5
S11312700E94E406789481EA93E00E94890C80E756
S113128094E00E94CA0B2FEF8FEF9EE02150804024
S11312909040E1F700C000000E942A0A0E94DB0788
S11312A00E945F0BF9CFC49A0895C49808950C94D2
S11312B00C0C1F93CF93DF931F92CDB7DEB7182F7B
S11312C00E94550983E00E94130C812F0E94130C85
S11312D080E00E94130C89830E94530989810F9036
S11312E0DF91CF911F9108951F93CF93DF931F92A6
S11312F0CDB7DEB7182F69830E94550982E00E949A
S1131300130C812F0E94130C6981862F0E94130CE9
S11313100F90DF91CF911F910C945309CF93DF93DA
S11313201F92CDB7DEB789830E94550989818770E2
S113133080680E94130C0F90DF91CF910C94530995
S11313400E94550980EC0E94130C0C9453097F925F
S11313508F929F92AF92BF92CF92DF92EF92FF92C1
S11313600F931F93CF93DF938C01FC0182A193A170
S1131370892B09F060C060E080E00E940F0B1F938E
S11313800F9380EB93E09F938F9387EA92E09F9370
S11313908F930E943A0C78010F900F900F900F904A
S11313A00F900F90C1E0D0E086EBC82E83E0D82EDA
S11313B090EBA92E93E0B92E27EA822E22E0922EFA
S11313C07C2E7A946C2F80E00E940F0BF8018189A7
S11313D07816D0F48089781202C081E001C080E0E0
S11313E00E94180BF70183898F9382898F93BF9290
S11313F0AF929F928F920E943A0C0F900F900F9091
S11314000F900F900F900DC080E00E94180BDF9397
S1131410CF93DF92CF920E94750C0F900F900F9094
S11314200F90E2E0EE0EF11C2196C830D10541F692
S113143080E00E94180B80E0DF91CF911F910F9103
S1131440FF90EF90DF90CF90BF90AF909F908F90E0
S11314507F9008958091E80381117EC00E94D40892
S1131460823059F4E0910101F091020180898823CE
S113147009F459C08150808B56C00E94D40883302F
S113148089F4E0910101F09102014089218930E061
S1131490842F90E00196821793070CF044C04F5FAD
S11314A0408B41C00E94D408813009F5E0910101CC
S11314B0F09102018089E80FF11DE80FF11D828986
S11314C09389009731F090930201809301010E9467
S11314D0C90AE0910101F091020102A0F3A1E02DFB
S11314E081E080930301309709F109951FC00E94A0
S11314F0D40881111BC0E0910101F091020104A004
S1131500F5A1E02D309709F00995E0910101F091E2
S1131510020180A191A1009731F090930201809380
S113152001010E94C90A81E08093030180910301B3
S1131530882341F080910101909102010E94A70942
S1131540109203010E94D4088430E1F78FEF9FE5E5
S11315500197F1F700C00000089581E08093E8034B
S113156008951092E803089587708093EA03806BCE
S1131570809300100895982F9F789093E9038F70BB
S1131580E0E0F0E18083892F82958F708061808311
S1131590089580E094E0E0E0F8E1DF019C011D9211
S11315A021503040E1F70895CF93DF9380E098E134
S11315B09093ED038093EC03C0E0D0E18EEA88833E
S11315C081EA88838AED888382E1888388EC888332
S11315D088EA88838FE3888385ED888380E888831D
S11315E081E8888380E5888389ED888381E2888324
S11315F080E2888382E088838BED888380E388831C
S11316008DEA8883188284EA888386EA88830E9424
S1131610C90A8FEA8883DF91CF910C94C90ACF93CA
S1131620C82F862F0E94B40A8C2FCF910C94BB0A2A
S11316308093EB0308959091E9032091EA0340E835
S1131640249F90011124290F311DE091EC03F091A6
S1131650ED03E20FF31F2081821719F021E020939C
S1131660A60280839F5F9093E90308950F931F93CD
S1131670CF93DF938A3039F46091EA036F5F80E09F
S11316800E940F0B16C098E0899F80011124C0E0CE
S1131690D0E00059184FF801EC0FFD1F8491909190
S11316A0EB03911180950E941B0B2196C830D10544
S11316B091F780E0DF91CF911F910F910895FF92F0
S11316C00F931F93CF93DF938091A602882349F150
S11316D060E080E00E940F0BC0E0D0E0F12C01E854
S11316E018E16F2D80E00E940F0B81E890E09C01CF
S11316F0215031092115310551F0F801E81BF90B8E
S1131700EC0FFD1F808180930012C901F0CFF39488
S1131710C058DF4F88E0F812E4CF86EC93E00E94D3
S1131720890C1092A602DF91CF911F910F91FF9027
S1131730089590E8899F90011124982F991F992763
S1131740991F922B282F22702295220F207E292B5D
S1131750982F9470990F990F990F922B482F4870D6
S1131760440F492B282F207130E035952795422BC3
S1131770282F207230E053E0359527955A95E1F7EC
S1131780422B807490E065E0959587956A95E1F722
S1131790842B0895CF92DF92FF920F931F93CF93E0
S11317A0DF931F92CDB7DEB7182F60E080E09983F6
S11317B00E940F0BC12E9981D92EF12C00E010E06C
S11317C0F801EC0DFD1D84910E94990B8093001289
S11317D00F5F1F4F0038110599F76F2D80E00E94AD
S11317E00F0BF39480E8C80ED11CE8E0FE12E6CF9C
S11317F00F90DF91CF911F910F91FF90DF90CF90C9
S11318000895811102C084E003C0813019F483E09B
S11318100C94D40580E0089587B3806B87BBBE9891
S113182081E58DB908958FB9779902C08FB1FCCF46
S1131830089585B7806885BF80B7806280BF0895AA
S1131840159BFECF83B90895179BFECF83B10895EE
S11318508CB78CBF80B18F6180B988E181B985EB89
S113186092E09093EF038093EE039093F1038093BF
S1131870F0030895A0E0B0E0E0E4FCE00C946F0F06
S1131880AE01475F5F4F6F8178858D819E810E9495
S1131890B60CE2E00C948B0FEF92FF920F931F9320
S11318A0CF93DF938B01DB0113962C9121FF16C09C
S11318B0EC01E12CF12C8991882371F0D801189660
S11318C0ED91FC911997B8010995892BA1F3EE24A8
S11318D0EA94FF24FA94EFCFC70102C08FEF9FEF81
S11318E0CDB7DEB7E6E00C94870FA0E0B0E0EBE7FD
S11318F0FCE00C946F0FFE01359661917191AF017C
S11319008091F0039091F1030E94B60CE2E00C94F4
S11319108B0F0F931F93CF93DF93E091F003F0911C
S1131920F103238121FF1BC0EC0100E010E0899149
S11319306091F0037091F103DB011896ED91FC9135
S11319401997882331F00995892B89F30FEF1FEF3D
S1131950EECF8AE00995892B11F4C80102C08FEFFC
S11319609FEFDF91CF911F910F910895ACE0B0E00C
S1131970ECEBFCE00C945F0F7C016B018A01FC0131
S113198017821682838181FFBDC1CE0101964C016D
S1131990F7019381F60193FD859193FF81916F0186
S11319A0882309F4ABC1853239F493FD859193FF03
S11319B081916F01853229F4B70190E00E94CF0E26
S11319C0E7CF512C312C20E02032A0F48B3269F087
S11319D030F4803259F0833269F420612CC08D32A6
S11319E039F0803339F4216026C02260246023C09A
S11319F0286021C027FD27C030ED380F3A3078F435
S1131A0026FF06C0FAE05F9E300D1124532E13C04A
S1131A108AE0389E300D1124332E20620CC08E32A1
S1131A2021F426FD6BC1206406C08C3611F42068B5
S1131A3002C0883641F4F60193FD859193FF8191AC
S1131A406F018111C1CF982F9F7D9554933028F455
S1131A500C5F1F4FFFE3F9830DC0833631F08337EA
S1131A6071F0833509F05BC022C0F801808189835D
S1131A700E5F1F4F44244394512C540115C0380168
S1131A80F2E06F0E711CF801A080B18026FF03C044
S1131A90652D70E002C06FEF7FEFC5012C870E94B7
S1131AA0C40E2C0183012C852F77222E17C03801F8
S1131AB0F2E06F0E711CF801A080B18026FF03C014
S1131AC0652D70E002C06FEF7FEFC5012C870E9487
S1131AD0B90E2C012C852068222E830123FC1BC007
S1131AE0832D90E048165906B0F4B70180E290E0E7
S1131AF00E94CF0E3A94F4CFF50127FC859127FE7E
S1131B0081915F01B70190E00E94CF0E31103A94A9
S1131B10F1E04F1A51084114510471F7E5C08436BD
S1131B2011F0893639F5F80127FF07C0608171810A
S1131B30828193810C5F1F4F08C060817181882767
S1131B4077FD8095982F0E5F1F4F2F76B22E97FF4B
S1131B5009C090958095709561957F4F8F4F9F4FE9
S1131B602068B22E2AE030E0A4010E94010FA82EC2
S1131B70A81844C0853729F42F7EB22E2AE030E01D
S1131B8025C0F22FF97FBF2E8F36C1F018F48835A7
S1131B9079F0B4C0803719F0883721F0AFC02F2F07
S1131BA02061B22EB4FE0DC08B2D8460B82E09C006
S1131BB024FF0AC09F2F9660B92E06C028E030E0AB
S1131BC005C020E130E002C020E132E0F801B7FEB8
S1131BD007C060817181828193810C5F1F4F06C0B1
S1131BE06081718180E090E00E5F1F4FA4010E942C
S1131BF0010FA82EA818FB2DFF77BF2EB6FE0BC031
S1131C002B2D2E7FA51450F4B4FE0AC0B2FC08C0DC
S1131C102B2D2E7E05C07A2C2B2D03C07A2C01C0CF
S1131C20752C24FF0DC0FE01EA0DF11D8081803367
S1131C3011F4297E09C022FF06C07394739404C072
S1131C40822F867809F0739423FD13C020FF06C009
S1131C505A2C731418F4530C5718732C731468F417
S1131C60B70180E290E02C870E94CF0E73942C85FC
S1131C70F5CF731410F4371801C0312C24FF12C0AF
S1131C80B70180E390E02C870E94CF0E2C8522FFC1
S1131C9017C021FF03C088E590E002C088E790E008
S1131CA0B7010CC0822F867859F021FD02C080E272
S1131CB001C08BE227FD8DE2B70190E00E94CF0EB8
S1131CC0A51438F4B70180E390E00E94CF0E5A9433
S1131CD0F7CFAA94F401EA0DF11D8081B70190E0D9
S1131CE00E94CF0EA110F5CF332009F451CEB701D5
S1131CF080E290E00E94CF0E3A94F6CFF7018681FD
S1131D00978102C08FEF9FEF2C96E2E10C947B0F3A
S1131D10DC01CB01FC01E199FECF06C0FFBBEEBBA9
S1131D20E09A31960DB20D9241505040B8F70895A3
S1131D30DC01A40FB51F4150504048F0CB01840F83
S1131D40951F2E910E94A90E41505040D0F708953E
S1131D50262FE199FECF9FBB8EBBE09A01970DB26F
S1131D60021631F02DBB0FB6F894E29AE19A0FBE39
S1131D700895FC010590615070400110D8F78095DA
S1131D8090958E0F9F1F0895FC0161507040019043
S1131D900110D8F7809590958E0F9F1F08950F938B
S1131DA01F93CF93DF93182F092FEB018B8181FDB4
S1131DB003C08FEF9FEF20C082FF10C04E815F8170
S1131DC02C813D81421753077CF4E881F9819F01FE
S1131DD02F5F3F4F39832883108306C0E885F98538
S1131DE0812F0995892B29F72E813F812F5F3F4F42
S1131DF03F832E83812F902FDF91CF911F910F91DD
S1131E000895FA01AA27283051F1203181F1E8948C
S1131E106F936E7F6E5F7F4F8F4F9F4FAF4FB1E0D9
S1131E203ED0B4E03CD0670F781F891F9A1FA11DD4
S1131E30680F791F8A1F911DA11D6A0F711D811DD5
S1131E40911DA11D20D009F468943F912AE0269F9A
S1131E5011243019305D3193DEF6CF010895462FF9
S1131E604770405D4193B3E00FD0C9F7F6CF462FDA
S1131E704F70405D4A3318F0495D31FD4052419343
S1131E8002D0A9F7EACFB4E0A69597958795779500
S1131E906795BA95C9F700976105710508959B0187
S1131EA0AC010A2E06945795479537952795BA9510
S1131EB0C9F7620F731F841F951FA01D08952F92E9
S1131EC03F924F925F926F927F928F929F92AF92C6
S1131ED0BF92CF92DF92EF92FF920F931F93CF9313
S1131EE0DF93CDB7DEB7CA1BDB0B0FB6F894DEBFAA
S1131EF00FBECDBF09942A88398848885F846E84D0
S1131F007D848C849B84AA84B984C884DF80EE8019
S1131F10FD800C811B81AA81B981CE0FD11D0FB622
S1131F20F894DEBF0FBECDBFED010895F894FFCF46
S1131F3001800201426F617264206A6F797374696F
S1131F40636B0000000000000000000000000000BF
S1131F50000000005001B2080000536C696465720F
S1131F60000000000000000000000000000000006D
S1131F70000000000000000000005001A408000060
S1131F804368616E676520636F6E74726F6C730073
S1131F90000204012A01000000000000000000000B
S1131FA05A020000000053746F7020746865206743
S1131FB0616D6500000000000000000000000000EA
S1131FC00000000000008002FB06FB0653746172EF
S1131FD074206E65772067616D6500000000000065
S1131FE00000000000000000000000008002EC0679
S1131FF0FB06436C65617220746F702073636F72AB
S11320006500000000000000000000000000000067
S113201000005A0289080000546F702073636F72C5
S11320206500000000000000000000000000000047
S1132030000000000000000080027B0700004E65E5
S1132040772067616D650000000000000000000259
S11320509C017601000000000000000000008002E6
S113206000000000446966666963756C7479000059
S1132070000000000000000000000000000000005C
S1132080000000005A020000000053657474696E79
S113209067730000000000000000000350013402D8
S11320A0C2010000000000000000800200000000E7
S11320B04D61696E206D656E7500000000000000C2
S11320C000030E02E8015A020000000000000000B4
S11320D000000000000001000000030000000036C2
S11320E00B000000000000000300000000200C248E
S11320F00C000047616D652073746172746564003F
S113210047616D65206F7665722120202020202094
S113211000596F7520676F7420256420706F696E95
S11321207473002020202020202020202020200044
S113213052696768743A204E65772067616D65005F
S11321404C6566743A2065786974004C69766573E9
S1132150206C656674203A2025336400506F696EE4
S1132160747320202020203A20253364002020206E
S1132170546F702073636F72650025642E202020D5
S11321802533640047616D652073746F70706564F6
S113219000546F702073636F726520636C656172A5
S11321A0656400496E70757420736574200A207428
S11321B06F20736C6964657200496E707574207366
S11321C06574200A20746F206A6F79737469636B75
S11321D000496E697420646F6E6500546573740001
S11321E0252D31367300436C6561726564206C691A
S11321F06E652025690057726F7465206275666686
S107220065720000FF
S9030000FC
