S00E00004E6F646520312E737265633F
S11300000C9438000C9455000C9488000C94550002
S11300100C9455000C9455000C9455000C94550008
S11300200C9455000C9455000C9455000C945500F8
S11300300C9455000C9455000C9455000C945500E8
S11300400C9455000C9455000C9455000C945500D8
S11300500C9455000C9455000C9455000C945500C8
S11300600C9455000C9455000C9455000C945500B8
S113007011241FBECFEFD4E0DEBFCDBF11E0A0E05E
S1130080B1E0E8E4FAE002C005900D92AE34B107A5
S1130090D9F721E0AEE4B1E001C01D92A935B20761
S11300A0E1F70E940F010C9422050C9400000895BE
S11300B0813041F484E0809300148299FECF8091D2
S11300C000140895823041F485E0809300148299ED
S11300D0FECF809100140895833041F486E080932C
S11300E000148299FECF809100140895843041F465
S11300F087E0809300148299FECF809100140895C4
S113010080E0089581B38C7F81BB3098389A08953C
S11301101F920F920FB60F9211248F9381E0809358
S11301204E018F910F900FBE0F901F9018950E9453
S113013088010E94AC0166E08BE20E948B0160E0C2
S11301408FE00E948B0185B7886085BF8BB780687C
S11301508BBF0895EF92FF920F931F93CF93DF937A
S1130160CDB7DEB72B970FB6F894DEBF0FBECDBF69
S1130170E982FA820B831C832D833E834F83588745
S113018069877A878B87E980FA80B70176956795C6
S1130190769567957695679581E30E948B016E2D20
S11301A06295660F607E82E30E948B01602F6F7000
S11301B085E30E948B01002379F07E0184E0E80E40
S11301C0F11C0A5C16E3F70161917F01812F0E9403
S11301D08B011F5F1013F7CF81E00E949F012B96C4
S11301E00FB6F894DEBF0FBECDBFDF91CF911F9144
S11301F00F91FF90EF9008950895CF9382E00E94AD
S11302005800C0914F01C058C80F81E00E945800A7
S1130210909150019058980F8C2FCF910895CF93BF
S1130220DF93CDB7DEB72B970FB6F894DEBF0FBEC2
S1130230CDBF0E9411020E9457000E9482000E94BA
S1130240CF010E9420020E9497000E94FC00789433
S11302508EE091E00E947802772473940F2EF9EED9
S11302608F2EF02D0F2EF3E04F2EF02D0F2EF3E0F6
S11302705F2EF02D0F2EF9EE6F2EF02D0F2EF8E1DC
S1130280AF2EF1E0BF2EF02D0F2EF1E3CF2EF1E0D3
S1130290DF2EF02D0E94FD00982E392E7B828C8358
S11302A0E82C89824A82F42C072D182F2D813E8157
S11302B04F81588569857A858B850E94AA005F9253
S11302C06F92BF92AF920E946402832D992787FD9B
S11302D090959F933F92292D332727FD30953F9387
S11302E09F92DF92CF920E9464022FEF8FEF92E0F1
S11302F0215080409040E1F700C000C00FB6F89450
S1130300DEBF0FBECDBFC6CFC49A0895C49808956A
S11303100E9403020895CF93DF93D82FC62F0E9423
S1130320860182E00E940A028D2F0E940A028C2F0D
S11303300E940A020E948401DF91CF910895CF9315
S1130340C82F0E9486018C2F877080680E940A0241
S11303500E948401CF9108950E94860180EC0E943E
S11303600A020E9484010895877080935201806B71
S11303708093001008950E94B40180E0E0E0F2E16F
S113038010828F5F8038E1F70895CF93C0E08C2FFF
S11303900E94BB01CF5FC830D1F7CF910895CF93AE
S11303A0DF93C0E0D0E18EEA888381EA88838AED16
S11303B0888382E1888388EC888388EA88838FE352
S11303C0888385ED888380E8888381E8888380E555
S11303D0888389ED888381E2888380E2888382E050
S11303E088838BED888380E388838DEA88831882F1
S11303F084EA888386EA88830E94C5018FEA888319
S1130400DF91CF91089587B3806B87BBBE9881E558
S11304108DB908958FB9779903C08FB1779BFDCFBC
S1130420089585B7806885BF80B7806280BF0895CE
S1130430159BFECF83B90895179BFECF83B1089512
S11304408CB78CBF80B18F6180B988E181B980E0BD
S113045091E09093540180935301909356018093BB
S1130460550108950F931F93CF93DF93182F092FEE
S1130470EB018B8181FD03C08FEF9FEF20C082FFD2
S113048010C04E815F812C813D81421753077CF45B
S1130490E881F9819F012F5F3F4F398328831083BF
S11304A006C0E885F985812F0995892B29F72E81C6
S11304B03F812F5F3F4F3F832E83812F902FDF910A
S11304C0CF911F910F910895A0E0B0E0EAE6F2E029
S11304D00C94FB04FE01359661917191AF018091FA
S11304E05501909156010E94A502E2E00C94170573
S11304F00F931F93CF93DF93E0915501F091560131
S1130500238121FF1BC0EC0100E010E08991609180
S1130510550170915601DB011896ED91FC911997E4
S1130520882331F00995892B89F30FEF1FEFEECF64
S11305308AE00995892B11F4C80102C08FEF9FEF5F
S1130540DF91CF911F910F910895ACE0B0E0EBEAF9
S1130550F2E00C94EB047C016B018A01FC0117822C
S11305601682838181FFBDC1CE0101964C01F70142
S11305709381F60193FD859193FF81916F01882307
S113058009F4ABC1853239F493FD859193FF8191D0
S11305906F01853229F4B70190E00E943202E7CF5F
S11305A0512C312C20E02032A0F48B3269F030F44D
S11305B0803259F0833269F420612CC08D3239F0D5
S11305C0803339F4216026C02260246023C028606F
S11305D021C027FD27C030ED380F3A3078F426FFCC
S11305E006C0FAE05F9E300D1124532E13C08AE03A
S11305F0389E300D1124332E20620CC08E3221F42B
S113060026FD6BC1206406C08C3611F4206802C03C
S1130610883641F4F60193FD859193FF81916F0132
S11306208111C1CF982F9F7D9554933028F40C5F8E
S11306301F4FFFE3F9830DC0833631F0833771F028
S1130640833509F05BC022C0F801808189830E5F85
S11306501F4F44244394512C540115C03801F2E037
S11306606F0E711CF801A080B18026FF03C0652DB8
S113067070E002C06FEF7FEFC5012C870E948204F7
S11306802C0183012C852F77222E17C03801F2E02C
S11306906F0E711CF801A080B18026FF03C0652D88
S11306A070E002C06FEF7FEFC5012C870E947704D2
S11306B02C012C852068222E830123FC1BC0832D52
S11306C090E048165906B0F4B70180E290E00E9429
S11306D032023A94F4CFF50127FC859127FE8191EB
S11306E05F01B70190E00E94320231103A94F1E0C8
S11306F04F1A51084114510471F7E5C0843611F0C2
S1130700893639F5F80127FF07C06081718182813C
S113071093810C5F1F4F08C060817181882777FD2A
S11307208095982F0E5F1F4F2F76B22E97FF09C02A
S113073090958095709561957F4F8F4F9F4F20685E
S1130740B22E2AE030E0A4010E948D04A82EA8183D
S113075044C0853729F42F7EB22E2AE030E025C02C
S1130760F22FF97FBF2E8F36C1F018F4883579F057
S1130770B4C0803719F0883721F0AFC02F2F206123
S1130780B22EB4FE0DC08B2D8460B82E09C024FF98
S11307900AC09F2F9660B92E06C028E030E005C03D
S11307A020E130E002C020E132E0F801B7FE07C0EA
S11307B060817181828193810C5F1F4F06C06081CB
S11307C0718180E090E00E5F1F4FA4010E948D04B0
S11307D0A82EA818FB2DFF77BF2EB6FE0BC02B2D1D
S11307E02E7FA51450F4B4FE0AC0B2FC08C02B2D11
S11307F02E7E05C07A2C2B2D03C07A2C01C0752CBB
S113080024FF0DC0FE01EA0DF11D8081803311F437
S1130810297E09C022FF06C07394739404C0822FFA
S1130820867809F0739423FD13C020FF06C05A2C68
S1130830731418F4530C5718732C731468F4B70119
S113084080E290E02C870E94320273942C85F5CFCD
S1130850731410F4371801C0312C24FF12C0B701EF
S113086080E390E02C870E9432022C8522FF17C07F
S113087021FF03C088E590E002C088E790E0B7015B
S11308800CC0822F867859F021FD02C080E201C09D
S11308908BE227FD8DE2B70190E00E943202A5149D
S11308A038F4B70180E390E00E9432025A94F7CF03
S11308B0AA94F401EA0DF11D8081B70190E00E9431
S11308C03202A110F5CF332009F451CEB70180E2F2
S11308D090E00E9432023A94F6CFF7018681978124
S11308E002C08FEF9FEF2C96E2E10C940705FC0108
S11308F00590615070400110D8F7809590958E0F47
S11309009F1F0895FC016150704001900110D8F7B9
S1130910809590958E0F9F1F0895FA01AA2728307D
S113092051F1203181F1E8946F936E7F6E5F7F4FB8
S11309308F4F9F4FAF4FB1E03ED0B4E03CD0670F34
S1130940781F891F9A1FA11D680F791F8A1F911D87
S1130950A11D6A0F711D811D911DA11D20D009F4D7
S113096068943F912AE0269F11243019305D319319
S1130970DEF6CF010895462F4770405D4193B3E002
S11309800FD0C9F7F6CF462F4F70405D4A3318F0A9
S1130990495D31FD4052419302D0A9F7EACFB4E05A
S11309A0A6959795879577956795BA95C9F7009712
S11309B06105710508959B01AC010A2E06945795B3
S11309C0479537952795BA95C9F7620F731F841F0A
S11309D0951FA01D08952F923F924F925F926F92A0
S11309E07F928F929F92AF92BF92CF92DF92EF92BB
S11309F0FF920F931F93CF93DF93CDB7DEB7CA1B3C
S1130A00DB0B0FB6F894DEBF0FBECDBF09942A8866
S1130A10398848885F846E847D848C849B84AA840E
S1130A20B984C884DF80EE80FD800C811B81AA819B
S1130A30B981CE0FD11D0FB6F894DEBF0FBECDBF66
S10B0A40ED010895F894FFCFC5
S1130A48000000030000000018021C020000496EA8
S1130A58697420646F6E650053656E74206D6573E8
S1130A6873616765206964203D20256420207C200B
S1130A78004A6F79737469636B20706F733A2078D6
S1110A883D25642C20793D2564207C200A0045
S9030000FC
