S00E00004E6F646520312E737265633F
S11300000C9438000C9455000C9488000C94550002
S11300100C9455000C9455000C9455000C94550008
S11300200C9455000C9455000C9455000C945500F8
S11300300C9455000C9455000C9455000C945500E8
S11300400C9455000C9455000C9455000C945500D8
S11300500C9455000C9455000C9455000C945500C8
S11300600C9455000C9455000C9455000C945500B8
S113007011241FBECFEFD4E0DEBFCDBF11E0A0E05E
S1130080B1E0E6E4FAE002C005900D92AE34B107A7
S1130090D9F721E0AEE4B1E001C01D92A935B20761
S11300A0E1F70E940F010C9421050C9400000895BF
S11300B0813041F484E0809300148299FECF8091D2
S11300C000140895823041F485E0809300148299ED
S11300D0FECF809100140895833041F486E080932C
S11300E000148299FECF809100140895843041F465
S11300F087E0809300148299FECF809100140895C4
S113010080E0089581B38C7F81BB3098389A08953C
S11301101F920F920FB60F9211248F9381E0809358
S11301204E018F910F900FBE0F901F9018950E9453
S113013087010E94AB0166E08BE20E948A0160E0C5
S11301408FE00E948A0185B7886085BF8BB780687D
S11301508BBF0895EF92FF920F931F93CF93DF937A
S1130160CDB7DEB72B970FB6F894DEBF0FBECDBF69
S1130170E982FA820B831C832D833E834F83588745
S113018069877A878B87E980FA80B70176956795C6
S1130190769567957695679581E30E948A016E2D21
S11301A06295660F607E82E30E948A01602F6F7001
S11301B085E30E948A01002379F07E0184E0E80E41
S11301C0F11C0A5C16E3F70161917F01812F0E9403
S11301D08A011F5F1013F7CF81E00E949E012B96C6
S11301E00FB6F894DEBF0FBECDBFDF91CF911F9144
S11301F00F91FF90EF9008950895CF9382E00E94AD
S11302005800C0914F01C058C80F81E00E945800A7
S1130210909150019058980F8C2FCF910895CF93BF
S1130220DF93CDB7DEB72B970FB6F894DEBF0FBEC2
S1130230CDBF0E9410020E9457000E9482000E94BB
S1130240CE010E941F020E9497000E94FC00789435
S11302508EE091E00E9477026894772471F80F2E63
S1130260F9EE8F2EF02D0F2EF3E04F2EF02D0F2EE2
S1130270F3E05F2EF02D0F2EF9EE6F2EF02D0F2EE2
S1130280F8E1AF2EF1E0BF2EF02D0F2EF1E3CF2ECB
S1130290F1E0DF2EF02D0E94FD00982E392E7B8296
S11302A08C839D83E82C89824A82F42C072D182F95
S11302B0292F3E814F81588569857A858B850E94D7
S11302C0AA005F926F92BF92AF920E946302832D45
S11302D0992787FD90959F933F92292D332727FDDA
S11302E030953F939F92DF92CF920E9463028FEFEB
S11302F09FE50197F1F700C000000FB6F894DEBF48
S11303000FBECDBFC8CFC49A0895C49808950E9463
S113031002020895CF93DF93D82FC62F0E94850140
S113032082E00E9409028D2F0E9409028C2F0E94F4
S113033009020E948301DF91CF910895CF93C82FC2
S11303400E9485018C2F877080680E9409020E9498
S11303508301CF9108950E94850180EC0E940902D7
S11303600E9483010895877080935201806B80936B
S1130370001008950E94B30180E0E0E0F2E11082F1
S11303808F5F8038E1F70895CF93C0E08C2F0E94EF
S1130390BA01CF5FC830D1F7CF910895CF93DF93DF
S11303A0C0E0D0E18EEA888381EA88838AED88837D
S11303B082E1888388EC888388EA88838FE3888352
S11303C085ED888380E8888381E8888380E5888355
S11303D089ED888381E2888380E2888382E0888350
S11303E08BED888380E388838DEA8883188284EA8E
S11303F0888386EA88830E94C4018FEA8883DF9118
S1130400CF91089587B3806B87BBBE9881E58DB982
S113041008958FB9779903C08FB1779BFDCF089565
S113042085B7806885BF80B7806280BF0895159BBB
S1130430FECF83B90895179BFECF83B108958CB77F
S11304408CBF80B18F6180B988E181B980E091E08F
S113045090935401809353019093560180935501D6
S113046008950F931F93CF93DF93182F092FEB0158
S11304708B8181FD03C08FEF9FEF20C082FF10C0EE
S11304804E815F812C813D81421753077CF4E881C2
S1130490F9819F012F5F3F4F39832883108306C062
S11304A0E885F985812F0995892B29F72E813F81CC
S11304B02F5F3F4F3F832E83812F902FDF91CF916A
S11304C01F910F910895A0E0B0E0E9E6F2E00C94EA
S11304D0FA04FE01359661917191AF018091550145
S11304E0909156010E94A402E2E00C9416050F9329
S11304F01F93CF93DF93E0915501F091560123812F
S113050021FF1BC0EC0100E010E0899160915501CE
S113051070915601DB011896ED91FC91199788238F
S113052031F00995892B89F30FEF1FEFEECF8AE0A5
S11305300995892B11F4C80102C08FEF9FEFDF9159
S1130540CF911F910F910895ACE0B0E0EAEAF2E098
S11305500C94EA047C016B018A01FC011782168267
S1130560838181FFBDC1CE0101964C01F7019381C6
S1130570F60193FD859193FF81916F01882309F41E
S1130580ABC1853239F493FD859193FF81916F015D
S1130590853229F4B70190E00E943102E7CF512C53
S11305A0312C20E02032A0F48B3269F030F4803218
S11305B059F0833269F420612CC08D3239F08033D4
S11305C039F4216026C02260246023C0286021C041
S11305D027FD27C030ED380F3A3078F426FF06C0E7
S11305E0FAE05F9E300D1124532E13C08AE0389E2A
S11305F0300D1124332E20620CC08E3221F426FDDE
S11306006BC1206406C08C3611F4206802C08836A1
S113061041F4F60193FD859193FF81916F0181115E
S1130620C1CF982F9F7D9554933028F40C5F1F4FB2
S1130630FFE3F9830DC0833631F0833771F08335DE
S113064009F05BC022C0F801808189830E5F1F4FCF
S113065044244394512C540115C03801F2E06F0E28
S1130660711CF801A080B18026FF03C0652D70E0E5
S113067002C06FEF7FEFC5012C870E9481042C011B
S113068083012C852F77222E17C03801F2E06F0EDC
S1130690711CF801A080B18026FF03C0652D70E0B5
S11306A002C06FEF7FEFC5012C870E9476042C01F6
S11306B02C852068222E830123FC1BC0832D90E00F
S11306C048165906B0F4B70180E290E00E94310266
S11306D03A94F4CFF50127FC859127FE81915F01BF
S11306E0B70190E00E94310231103A94F1E04F1AC0
S11306F051084114510471F7E5C0843611F089366C
S113070039F5F80127FF07C06081718182819381E7
S11307100C5F1F4F08C060817181882777FD809529
S1130720982F0E5F1F4F2F76B22E97FF09C090951A
S11307308095709561957F4F8F4F9F4F2068B22EA3
S11307402AE030E0A4010E948C04A82EA81844C01A
S1130750853729F42F7EB22E2AE030E025C0F22F0F
S1130760F97FBF2E8F36C1F018F4883579F0B4C004
S1130770803719F0883721F0AFC02F2F2061B22EB7
S1130780B4FE0DC08B2D8460B82E09C024FF0AC0AE
S11307909F2F9660B92E06C028E030E005C020E106
S11307A030E002C020E132E0F801B7FE07C060810A
S11307B07181828193810C5F1F4F06C060817181BA
S11307C080E090E00E5F1F4FA4010E948C04A82ECD
S11307D0A818FB2DFF77BF2EB6FE0BC02B2D2E7F46
S11307E0A51450F4B4FE0AC0B2FC08C02B2D2E7E12
S11307F005C07A2C2B2D03C07A2C01C0752C24FF44
S11308000DC0FE01EA0DF11D8081803311F4297EB3
S113081009C022FF06C07394739404C0822F8678A3
S113082009F0739423FD13C020FF06C05A2C7314DF
S113083018F4530C5718732C731468F4B70180E23E
S113084090E02C870E94310273942C85F5CF7314A9
S113085010F4371801C0312C24FF12C0B70180E313
S113086090E02C870E9431022C8522FF17C021FFC3
S113087003C088E590E002C088E790E0B7010CC0AF
S1130880822F867859F021FD02C080E201C08BE2FC
S113089027FD8DE2B70190E00E943102A51438F4DF
S11308A0B70180E390E00E9431025A94F7CFAA94F2
S11308B0F401EA0DF11D8081B70190E00E9431023C
S11308C0A110F5CF332009F451CEB70180E290E0B6
S11308D00E9431023A94F6CFF7018681978102C0D3
S11308E08FEF9FEF2C96E2E10C940605FC01059036
S11308F0615070400110D8F7809590958E0F9F1F1E
S11309000895FC016150704001900110D8F7809562
S113091090958E0F9F1F0895FA01AA27283051F150
S1130920203181F1E8946F936E7F6E5F7F4F8F4F1C
S11309309F4FAF4FB1E03ED0B4E03CD0670F781F7B
S1130940891F9A1FA11D680F791F8A1F911DA11D60
S11309506A0F711D811D911DA11D20D009F4689499
S11309603F912AE0269F11243019305D3193DEF641
S1130970CF010895462F4770405D4193B3E00FD0F7
S1130980C9F7F6CF462F4F70405D4A3318F0495DE2
S113099031FD4052419302D0A9F7EACFB4E0A695C5
S11309A09795879577956795BA95C9F700976105E7
S11309B0710508959B01AC010A2E0694579547953D
S11309C037952795BA95C9F7620F731F841F951F32
S11309D0A01D08952F923F924F925F926F927F9243
S11309E08F929F92AF92BF92CF92DF92EF92FF923B
S11309F00F931F93CF93DF93CDB7DEB7CA1BDB0BE7
S1130A000FB6F894DEBF0FBECDBF09942A8839888B
S1130A1048885F846E847D848C849B84AA84B98492
S1130A20C884DF80EE80FD800C811B81AA81B9819E
S1130A30CE0FD11D0FB6F894DEBF0FBECDBFED01B2
S1090A400895F894FFCFB5
S1130A46000000030000000017021B020000496EAC
S1130A56697420646F6E650053656E74206D6573EA
S1130A6673616765206964203D20256420207C200D
S1130A76004A6F79737469636B20706F733A2078D8
S1110A863D25642C20793D2564207C200A0047
S9030000FC
